:020000040000FA
:100000000C9419080C944A080C944A080C944A0859
:100010000C944A080C944A080C944A080C944A0818
:100020000C944A080C944A080C944A080C944A0808
:100030000C944A080C944A080C944A080C944A08F8
:100040000C944A080C944A080C944A080C944A08E8
:100050000C944A080C944A080C944A080C947F2D7E
:100060000C944A080C944A080C944A080C944A08C8
:100070000C944A080C944A080C944A080C944A08B8
:100080000C944A080C944A080C944A080C944A08A8
:100090000C944A080C944A080C944A080C94C92DF4
:1000A0000C944A080C944A080C944A080C944A0888
:1000B0000C944A080C944A080C944A080C944A0878
:1000C0000C944A080C944A080C944A080C944A0868
:1000D0000C944A080C944A080C944A080C944A0858
:1000E0000C944A080C94AC160C9453130C944C08C2
:1000F0000C9475080C944C0A0C9498080C949C0F62
:100100000C9480100C94B90F0C94ED2E0C9439348F
:100110000C94750A0C94B8090C94B9090C947108E4
:100120000C94B7090C94B0080C94B90B0C94790892
:100130000C94A20A0C94C50E0C947D080C94981093
:100140000C948A080C9470100C94240F0C94C31215
:100150000C94A2080C949E080C940C130C9400119F
:100160000C94AB080C9455160C948C100C94AB1694
:100170000C9486080C9480080C9494080C945B0AE8
:100180000C94A6080C946B080C94F30D0C94AC081A
:100190000C9490080C946E0A5345545550204D45CC
:1001A0004E5500444956455253495459004D414E0D
:1001B00055414C204D4F44450042414E442053434D
:1001C000414E4E4552004155544F205345415243F4
:1001D00048004D4F44452053454C454354494F4EEC
:1001E000003539343500353830300035333632009B
:1001F0004D696E3A20202020204D61783A005253FC
:10020000534920534554555000424553543A0042F7
:10021000414E44205343414E4E455200353934350A
:10022000003538303000353336320042414E443AE2
:10023000004155544F205345454B204D4F444500F8
:100240004D414E55414C204D4F4445002D2D2053DE
:1002500041564544202D2D005349474E3A00465201
:1002600045513A202020202047487A004348414EFB
:100270003A00410042004500462F4169727761769D
:100280006500432F5261636500442F352E332020D3
:1002900020200042414E443A004155544F205345DE
:1002A000454B004D414E55414C0042414E44205378
:1002B00043414E4E4552004D4F44453A005341563E
:1002C000452053455454494E475300414E54454EE2
:1002D0004E41204300414E54454E4E412042004184
:1002E0004E54454E4E412041004155544F004C4F15
:1002F00057205349474E414C0052535349005245F1
:1003000043454956455220430052454345495645C9
:100310005220420052454345495645522041004132
:1003200055544F004449564552534954590041557C
:10033000544F205345454B204D4F444500415554A3
:100340004F204D4F4445204C4F434B00412020202F
:1003500020202020200042202020202020202000BB
:1003600045202020202020202000462F4169727740
:1003700061766500432F5261636520202000442F81
:10038000352E332020202000202020002020200097
:1003900053415645202620455849540043414C4975
:1003A00042524154452052535349005349474E202D
:1003B0003A20004F4646004F4E20004245455053DC
:1003C0003A20004652455155454E43590043484155
:1003D0004E4E454C2020004F524445523A20005387
:1003E00045545550204D454E5500A1A2A3A4A5A6A5
:1003F000A7A8B1B2B3B4B5B6B7B8E1E2E3E4E5E6B5
:10040000E7E8F1F2F3F4F5F6F7F8C1C2C3C4C5C6E4
:10041000C7C8D1D2D3D4D5D6D7D8E916D516C116E8
:10042000AD169916851671165D16651678168B161B
:100430009E16B116C416D716EA1649163516211699
:100440000D16FD161117251739176C168016941600
:10045000A816BC16D016E416F8161A163F1664161F
:100460008916AE16D316F8161D17F21417153C157B
:1004700061158615AB15D015F51528292A2B2C2DBD
:100480002E2F131220112110072208180609190512
:10049000230A1A040B1B03240C1C020D1D25010E3C
:1004A0001E000F1F261415271617052A9B299129B0
:1004B00087291D29132909299F2803290C29162971
:1004C0001F29892992299C29052A95288B2881286A
:1004D00017280F2A192A832A8D2A062910291A2952
:1004E00084298E299829022A0C2A1D288F2802295E
:1004F0001429872999290C2A1E2A09261C268E26AA
:1005000001271327862798270B28000103070F1FB1
:100510003F7F0080C0E0F0F8FCFE00000000003EDD
:100520005B4F5B3E3E6B4F6B3E1C3E7C3E1C183C63
:100530007E3C181C577D571C1C5E7F5E1C00183CBF
:100540001800FFE7C3E7FF0018241800FFE7DBE708
:10055000FF30483A060E2629792926407F050507EF
:10056000407F05253F5A3CE73C5A7F3E1C1C08084B
:100570001C1C3E7F14227F22145F5F005F5F060910
:100580007F017F006689956A606060606094A2FF69
:10059000A29408047E040810207E201008082A1C5B
:1005A00008081C2A08081E101010100C1E0C1E0C27
:1005B00030383E3830060E3E0E06000000000000C7
:1005C000005F00000007000700147F147F14242A36
:1005D0007F2A122313086462364956205000080708
:1005E0000300001C2241000041221C002A1C7F1C29
:1005F0002A08083E0808008070300008080808082B
:10060000000060600020100804023E5149453E0091
:10061000427F400072494949462141494D331814EF
:10062000127F1027454545393C4A4949314121113E
:1006300009073649494936464949291E0000140030
:100640000000403400000008142241141414141453
:10065000004122140802015909063E415D594E7CB1
:100660001211127C7F494949363E414141227F4166
:1006700041413E7F494949417F090909013E4141C4
:1006800051737F0808087F00417F41002040413FAF
:10069000017F081422417F404040407F021C027FBE
:1006A0007F0408107F3E4141413E7F090909063E13
:1006B0004151215E7F0919294626494949320301E2
:1006C0007F01033F4040403F1F2040201F3F4038F4
:1006D000403F631408146303047804036159494DCF
:1006E00043007F4141410204081020004141417F05
:1006F000040201020440404040400003070800207B
:10070000545478407F28444438384444442838447A
:1007100044287F385454541800087E090218A4A4B1
:100720009C787F0804047800447D40002040403DD0
:10073000007F1028440000417F40007C047804784A
:100740007C080404783844444438FC1824241818DD
:10075000242418FC7C080404084854545424040439
:100760003F44243C4040207C1C2040201C3C403026
:10077000403C44281028444C9090907C4464544C55
:1007800044000836410000007700000041360800B0
:1007900002010204023C2623263C1EA1A161123A5A
:1007A0004040207A385454555921555579412254A6
:1007B000547842215554784020545579400C1E52AB
:1007C0007212395555555939545454593955545450
:1007D000580000457C410002457D420001457C40B7
:1007E0007D1211127DF0282528F07C5455450020FB
:1007F00054547C547C0A097F4932494949323A446D
:1008000044443A324A4848303A4141217A3A4240D7
:100810002078009DA0A07D3D4242423D3D404040A9
:100820003D3C24FF2424487E4943662B2FFC2F2B7C
:10083000FF0929F620C0887E09032054547941001D
:1008400000447D413048484A32384040227A007A9C
:100850000A0A727D0D19317D2629292F282629297A
:10086000292630484D40203808080808080808089C
:10087000382F10C8ACBA2F102834FA00007B0000C3
:1008800008142A142222142A14085500550055AAC7
:1008900055AA55AAFF55FF55FF000000FF00101094
:1008A00010FF00141414FF001010FF00FF1010F0D0
:1008B00010F0141414FC001414F700FF0000FF00E3
:1008C000FF1414F404FC141417101F10101F101F31
:1008D0001414141F00101010F0000000001F10105E
:1008E00010101F10101010F010000000FF1010105A
:1008F000101010101010FF10000000FF140000FF77
:1009000000FF00001F10170000FC04F4141417105F
:10091000171414F404F40000FF00F7141414141452
:100920001414F700F7141414171410101F101F14C8
:100930001414F4141010F010F000001F101F000029
:10094000001F14000000FC140000F010F01010FF55
:1009500010FF141414FF141010101F00000000F0FA
:1009600010FFFFFFFFFFF0F0F0F0F0FFFFFF0000CF
:10097000000000FFFF0F0F0F0F0F3844443844FCF6
:100980004A4A4A347E02020606027E027E0263550D
:100990004941633844443C04407E201E2006027EC8
:1009A000020299A5E7A5991C2A492A1C4C720172DA
:1009B0004C304A4D4D303048784830BC625A463D44
:1009C0003E494949007E0101017E2A2A2A2A2A44F9
:1009D000445F444440514A444040444A514000002E
:1009E000FF0103E080FF000008086B6B0836123639
:1009F0002436060F090F060000181800000010101A
:100A0000003040FF0101001F01011E00191D1712D7
:100A1000003C3C3C3C0000000000DB40A4A62EAFA4
:100A20002000A1C8D300408DAED580A80000600092
:100A300000000000000000000000000000E00000D6
:100A4000000000000000000000000001E0000000C5
:100A50000000000000000000000001F000000000A5
:100A600000000000000000000003F0000000000093
:100A7000000000000000000007F00000000000007F
:100A80000000000000000007F80000000000000067
:100A90000000000000000FF800000003C0007E000E
:100AA0000001E0007F0FF800000003C000FE00001E
:100AB00001E000FFEFF800000003C000FE000001AD
:100AC000E000FFFFF800000003C000F00000000F8E
:100AD000007FFE7FC0000003C000F00000000F0098
:100AE0003FFE7FF83FF1FBCFFCFEF3BC3DEFE01F84
:100AF000FE7FFF7FFBFFDFFEFEFFBC3DEFE01FC67A
:100B0000FFFF7FFBFFDFFEFEFFBC3DEFE00FE3C713
:100B1000FE787BC3DE1EF0FFBC3DEF0007FF87FCC5
:100B2000787BC3DE1EF0F83C3DEF0001FFFFF000D4
:100B30007BC3C01EF0F03C3DEF0001F37FE03FFBC4
:100B4000C3CFFEF0F03C3DEF0003E33F807FFBC3EB
:100B5000DFFEF0F03C3DEF0007E73C00787BC3DEB2
:100B60001EF0F03C3DEF0007FFBE00787BC3DE1EA9
:100B7000F0F03C3DEF0007FFFE00787BC3DE1EF087
:100B8000F03C3DEF000FFFFE007FFBFFDFFEF0F0CB
:100B90003FFDEFE00FFFFF007FFBFFDFFEF0F03FC8
:100BA000FDEFE00FF9FF003E79F9CF9EF0F01F3D19
:100BB000E7E01FF1FF00000000000000000000005F
:100BC000001F80FF007FFFFFFFFFFFFFFFFFFFE031
:100BD0001C007F007FFFFFFFFEB46D888D18E000D2
:100BE000001F007FFFFFFFFE95AD7DB577E00000A1
:100BF0000F007FFFFFFFFEA5AD9D8D19E0000006F1
:100C0000007FFFFFFFFEB5ADEDB57EE00000000008
:100C100000018000000000000000000003800000D0
:100C20000000000000000007C000000000000000FD
:100C3000000007C00000000000000000000FC0001E
:100C400000000000000000001FE0000000000000A5
:100C50000000001FE00000000000000000003FE076
:100C60000000000000000000003FF0000000000055
:100C7000000000007FF0000000000000001FF87F6F
:100C8000F0000000000000003FFE7FF000000000C8
:100C90000000003FFF7FF0000000000000001FFF89
:100CA000FBE0000000000000000FFFF9FFC00000A3
:100CB000000000000FFFF9FFF8000000000000072F
:100CC000FFF1FFFF00000000000003FC73FFFF8046
:100CD000000000000001FE3FFFFF80000000000058
:100CE00000FF1E0FFF000000000000007FFE1FFC41
:100CF000000000000000003FFFFFF80000000000BF
:100D000000000FDFFFE0000000000000001F19FFDF
:100D1000C0000000000000003F3CFF000000000099
:100D20000000007E7CF800000000000000007FFE54
:100D30007C0000000000000000FFFFFC000000003D
:100D400000000000FFFFFE0000000000000000FFA8
:100D5000FFFE0000000000000001FFEFFE000000A9
:100D60000000000001FFCFFE0000000000000003B3
:100D7000FF07FE0000000000000003FC07FE00006B
:100D8000000000000003F003FE000000000000006F
:100D9000018000FE000000000000000000007E0056
:100DA0000000000000000000003E00000000000005
:100DB000000000000C000000000000078000FC00A4
:100DC0000003C0000000078001FC000003C0000019
:100DD00000078001FC000003C0000000078001E064
:100DE0000000001E000000078001E00000001E005F
:100DF0007FE3F79FF9FDE7787BDFC0FFF7FFBFFDDB
:100E0000FDFF787BDFC0FFF7FFBFFDFDFF787BDFD5
:100E1000C0F0F787BC3DE1FF787BDE00F0F787BCD0
:100E20003DE1F0787BDE0000F787803DE1E0787BF4
:100E3000DE007FF7879FFDE1E0787BDE00FFF7872C
:100E4000BFFDE1E0787BDE00F0F787BC3DE1E078B4
:100E50007BDE00F0F787BC3DE1E0787BDE00F0F759
:100E600087BC3DE1E0787BDE00FFF7FFBFFDE1E0FE
:100E70007FFBDFC0FFF7FFBFFDE1E07FFBDFC07C52
:100E8000F3F39F3DE1E03E7BCFC000000000000097
:100E90000000000000FFFFFFFFFFFFFFFFFFFFC09C
:100EA000FFFFFFFFFD68DB111A31C0FFFFFFFFFDF1
:100EB0002B5AFB6AEFC0FFFFFFFFFD4B5B3B1A3372
:100EC000C0FFFFFFFFFD6B5BDB6AFDC04449534180
:100ED000424C45440020454E41424C4544002020B0
:100EE00054524950504C4500446976657273697498
:100EF000793A004F4B00506F7765723A00426F6F3E
:100F00007420436865636B00000021002400270003
:100F10002A002D0030003300010100000401070108
:100F20000A0100002200250028002B002E003100BD
:100F3000340002010000050108010B01000020003F
:100F40002300260029002C002F00320000010000A1
:100F5000030106010901050505050705080808083C
:100F6000020202020A0A0808040404040101010141
:100F7000010101010303030303030303040707073C
:100F80000C0C0C0C0C0C0C0C0202020206060606E1
:100F9000060606060B0B0B0B0B0B0B0B01021020AE
:100FA000200808102040102040800201020108049F
:100FB0000201010204081020408080402010080433
:100FC000020180040201804020100804020108048C
:100FD00002010102040810204080010204081020D0
:100FE000408000000A0B02090C0D0E0807030401E3
:100FF00000000000000000000000000000000000F1
:1010000000000000000000000000000000001211BD
:1010100010000000000000000000000000000000C0
:1010200000000000000000002200FF210000ED2E63
:10103000393411241FBECFEFD1E2DEBFCDBF00E0B7
:101040000CBF12E0A0E0B2E0E8EFF0E700E00BBF79
:1010500002C007900D92A237B107D9F723E0A2E7AB
:10106000B2E001C01D92A63CB207E1F718E0C8E16A
:10107000D8E000E006C021970109802FFE010E9400
:101080001637C731D10780E00807A9F70E943D2F26
:101090000C946A380C94000008958150823108F055
:1010A0005AC0E82FF0E08827E75AF74F8F4F0C948B
:1010B000163779087D086B0871087508AB08800839
:1010C00086088A089008940898089E08A208AB0829
:1010D000A608AC08B008809180008F7780938000CC
:1010E0000895809180008F7DF9CF80918000877F67
:1010F000F5CF84B58F7784BD089584B58F7DFBCF00
:101100008091B0008F778093B00008958091B000F7
:101110008F7DF9CF809190008F7780939000089514
:10112000809190008F7DF9CF80919000877FF5CFDF
:101130008091A0008F778093A00008958091A000F7
:101140008F7DF9CF8091A000877FF5CF809120011E
:101150008F77809320010895809120018F7DF9CFB2
:1011600080912001877FF5CFCF93DF93282F30E048
:10117000F901EE51F04F8491F901E456F04FD4910A
:10118000F901EA5AF04FC491CC23A1F081110E94D9
:101190004D08EC2FF0E0EE0FFF1FE45CF04FA5913F
:1011A000B491EC91ED2381E090E009F480E0DF91CF
:1011B000CF91089580E090E0FACF1F93CF93DF9313
:1011C000282F30E0F901EE51F04F8491F901E456F7
:1011D000F04FD491F901EA5AF04FC491CC23A9F011
:1011E000162F81110E944D08EC2FF0E0EE0FFF1F2B
:1011F000EE5DF04FA591B4918FB7F894EC91111179
:1012000008C0D095DE23DC938FBFDF91CF911F9173
:101210000895DE2BF8CFCF93DF9390E0FC01E456E6
:10122000F04F24918A5A904FFC0184918823D1F089
:1012300090E0880F991FFC01E85FF04FA591B491F1
:10124000FC01EE5DF04FC591D49161110EC09FB7C6
:10125000F8948C91E22FE0958E238C932881E223E1
:10126000E8839FBFDF91CF9108958FB7F894EC91F9
:10127000E22BEC938FBFF6CF90917B00977F9093FA
:101280007B008653806480937C0080917A00806428
:1012900080937A0080917A0086FDFCCF809178005F
:1012A0009091790008953FB7F89480916B039091E5
:1012B0006C03A0916D03B0916E0326B5A89B05C089
:1012C0002F3F19F00196A11DB11D3FBFBA2FA92FC5
:1012D000982F8827BC01CD01620F711D811D911DC2
:1012E00042E0660F771F881F991F4A95D1F708952E
:1012F0008F929F92AF92BF92CF92DF92EF92FF9226
:101300006B017C010E9453094B015C01C114D104A3
:10131000E104F104B9F00E945309681979098A09B6
:101320009B09683E73408105910580F321E0C21A54
:10133000D108E108F10888EE880E83E0981EA11C10
:10134000B11CE4CFFF90EF90DF90CF90BF90AF90B3
:101350009F908F9008952FB7F894609167037091D4
:1013600068038091690390916A032FBF08950895DF
:101370000895AF92BF92CF92DF92EF92FF920F93B8
:101380001F93CF93DF936C017B018B01040F151F1B
:10139000EB015E01AE18BF08C017D10759F0699183
:1013A000D601ED91FC910190F081E02DC6011995D7
:1013B000892B79F7C501DF91CF911F910F91FF9094
:1013C000EF90DF90CF90BF90AF90089520910703EA
:1013D000260F3327331F21323105ECF420912B03E4
:1013E000FC0190E080E0243069F082E00895A09153
:1013F00007032191AC0149515D4FA40FB52FB11DD9
:101400002C930196861798F380910703680F6093D9
:10141000070380E0089581E0089510922B0381E096
:1014200080932D0310922C0361E084E10E94DD087B
:1014300061E085E10E94DD08E9EBF0E080818E7FCC
:10144000808380818D7F808388E48093B80085E4E9
:101450008093BC000895CF93DF9391E09093E602D0
:101460008823B9F0C091B800D091BA008091BC0037
:101470008A7B8093BC0060E084E10E94DD0860E02C
:1014800085E10E94DD080E940D0AD093BA00C09346
:10149000B800DF91CF910895E091570380915603F2
:1014A000E81730F4F0E0EF53FD4F808190E00895AD
:1014B0008FEF9FEF089590915703809156032FEF80
:1014C0003FEF981748F4E92FF0E0EF53FD4F2081EC
:1014D00030E09F5F90935703C901089580915603B0
:1014E00090915703891B990B0895CF92DF92EF9249
:1014F000FF920F931F93CF93DF937C01CB018A015F
:1015000020917203222389F0EB016B01C40ED51EDA
:10151000CC15DD0569F06991D701ED91FC91019041
:10152000F081E02DC7011995F3CF642F0E94E609E1
:10153000C801DF91CF911F910F91FF90EF90DF9045
:10154000CF900895CF93DF931F92CDB7DEB7698315
:10155000209172032223F9F020916F03203258F07A
:1015600021E030E0FC013383228390E080E00F90A3
:10157000DF91CF91089580917003E82FF0E0EF554F
:10158000FD4F998190838F5F8093700380936F03E9
:1015900081E090E0ECCF61E0CE0101960E94E60987
:1015A000F7CFCF92DF92EF92FF920F931F93CF93DB
:1015B000DF93D0916F0381E0D13208F09CC0C091DD
:1015C00071030E9453096B017C0180912B038111EF
:1015D0006CC082E080932B0381E080932D038FEF1A
:1015E00080932A0310924F03D0934E03A1EAB2E0F6
:1015F000EEE2F3E080E0D8138DC0109250038091AA
:101600005003CC0FC82BC093500380912C03813022
:1016100009F084C010922C030E9453096B017C01D5
:10162000809150038093BB008091E2029091E3028D
:10163000A091E402B091E502892B8A2B8B2BA1F0BB
:101640000E9453090091E2021091E3022091E4020A
:101650003091E5026C197D098E099F09061717075D
:101660002807390708F442C08091BC0083FDD8CF19
:1016700085EC8093BC000E9453096B017C01809132
:101680002B03823009F44CC080912A038F3F09F468
:1016900069C080912A03803209F466C080912A03D0
:1016A000803309F463C084E026C08091E202909107
:1016B000E302A091E402B091E502892B8A2B8B2BE7
:1016C00009F483CF0E9453090091E2021091E302D2
:1016D0002091E4023091E5026C197D098E099F0981
:1016E000061717072807390708F06FCF8091E10226
:1016F0000E942B0A85E01092700310926F031092E3
:101700007203DF91CF911F910F91FF90EF90DF90C7
:10171000CF9008959D9191938F5F6DCF85EEA9CF66
:101720008091E2029091E302A091E402B091E5027F
:10173000892B8A2B8B2B09F4A2CF0E94530900918D
:10174000E2021091E3022091E4023091E5026C196B
:101750007D098E099F09061717072807390708F022
:101760008ECFC4CF80E0C7CF82E0C5CF83E0C3CFA8
:101770000895FC016370668B848195812681378191
:10178000613039F0633029F0918780873387228771
:101790000895318720879387828708952F923F92FB
:1017A0004F925F926F927F928F929F92AF92BF9271
:1017B000CF92DF92EF92FF920F931F93CF93DF931D
:1017C000CDB7DEB76A970FB6F894DEBF0FBECDBFB8
:1017D0009A8F898F7A8369834A01D22E18870F8363
:1017E0003701BC2CDC0159962D913C915A9721155B
:1017F000310509F015C118968D919C9119976817BC
:1018000079070CF0D7C11A968D919C91481759070A
:101810000CF0D0C14C2C512CB6E0CB9E600D711D4C
:1018200011247C876B87161617060CF0C3C1EA2DAE
:10183000F0E0FA87E98793E0EE0FFF1F9A95E1F752
:10184000F88BEF87CF01840F951F181619060CF03F
:10185000B1C1A98DBA8D58968C91811104C0BFEA8F
:10186000BD1508F4D394A98DBA8DED91FC91119713
:101870000284F385E02DCD011995B5E0DB9EC00112
:101880001124E981FA81FC83EB83312C212C9C010A
:10189000265E3A4F388F2F8B4A2D50E05E8B4D8B52
:1018A000EF89F88DE20DF31D44919E828D82D12C3B
:1018B000C12C69817A81620D731D7A8B698B842FAB
:1018C00090E09C8B8B8BE98DFA8DA081B18140FFDC
:1018D00082C0F1E0BF126FC0AF126DC01C96ED91D7
:1018E000FC912F813885A4014C0D5D1D69897A8991
:1018F000898D9A8D1995EB89FC89F595E7954E2F81
:101900005FEFC51AD50A6D817E818D899E89680F2A
:10191000791F7E836D8398E0C916D10481F6AFEFFD
:101920002A1A3A0AEB81FC81E40DF51DFC83EB8356
:10193000F5E02F16310409F0B3CF2F813885261535
:101940003705B9F0A98DBA8DED91FC91B1E0BB12CC
:1019500057C0AB1255C069817A816B5F7F4F008899
:10196000F189E02D830128E030E0A401898D9A8D72
:101970001995A98DBA8DED91FC9111970688F7897B
:10198000E02DCD016A960FB6F894DEBF0FBECDBF35
:10199000DF91CF911F910F91FF90EF90DF90CF904B
:1019A000BF90AF909F908F907F906F905F904F907F
:1019B0003F902F9019941E96ED91FC91EF80F88442
:1019C00009851A8592014D815E816B817C81898DAB
:1019D0009A8D199590CF2F8138852615370509F4F2
:1019E0008ACF31E0B31207C0A31205C01C96ED9157
:1019F000FC91930178CF1E96ED91FC917301E0CF9D
:101A00006B857C85641975090684F785E02D730163
:101A10000F8518899201A401898D9A8D1995A9CFF6
:101A2000F90134969491329745915491D91AB7E0BF
:101A3000DB9E400D511D1124F901259134913C8B01
:101A40002B8BFA0125903490FA01329674903196DE
:101A50003491398B329664903196449041E04C1524
:101A600018F04A1508F07FC0662D062C000C770B85
:101A70007C836B83842D042C000C990B9E838D83B7
:101A8000A98DBA8DED91FC9111970284F385E02D1B
:101A9000CD011995512CD12CC12CEA2DF0E0FA87FB
:101AA000E9872B2D30E03C872B87A401440D511D85
:101AB00047FC5A95588F4F8B69817A81660D711D4D
:101AC00067FC7A957E876D877989C71608F051CFB4
:101AD0002C2D30E04D815E81420F531FA985BA85C0
:101AE0004A9FC0014B9F900D5A9F900D1124FC01FD
:101AF000E80DF91DF88BEF87852D612C4F89588DE6
:101B0000420F531F5E8B4D8B671408F050C0442466
:101B10004394480E877041F4C1010196EB89FC891A
:101B2000E20DF31DD4901C01D7FE19C0A98DBA8D0A
:101B3000ED91FC91662D70E0B1E0BB1219C0AB12C3
:101B400017C02D853E85620F731F0484F585E02D37
:101B50002F8138854D895E89898D9A8D1995DD0C87
:101B60006394842DD1CF1E821D821C821B8288CF5C
:101B70004B815C81640F751FAB85BC856A9FC0017A
:101B80006B9F900D7A9F900D112469817A81680F67
:101B9000791F0684F785E02DEF80F88409851A8582
:101BA0009D014F855889898D9A8D1995D8CF570CED
:101BB000C3948ACF6A960FB6F894DEBF0FBECDBF2E
:101BC000DF91CF911F910F91FF90EF90DF90CF9019
:101BD000BF90AF909F908F907F906F905F904F904D
:101BE0003F902F9008958F929F92AF92CF92EF9255
:101BF000FF920F931F93CF93DF93EC01262F898DD4
:101C00009A8D009709F051C06A30D1F41D861C8668
:101C10008D8948E0849F900111248E859F85820FD5
:101C2000931F9F878E8781E090E0DF91CF911F9176
:101C30000F91FF90EF90CF90AF909F908F9008956D
:101C40006D3089F3CC88AD888F898823C1F08C856D
:101C50009D8536E0C39E800D911D112448855985D0
:101C60004817590764F44E855F851D861C8638E049
:101C7000A39EC0011124840F951F9F878E87EA8839
:101C8000FB88088919894E855F856C857D85CE0125
:101C90000E94CE0B2C898C859D8546E0249F800D6B
:101CA000911D11249D878C87BECF6A3069F41D86F3
:101CB0001C86FC013896E4912D898E859F85E29FD4
:101CC000800D911D1124ADCF6D3009F4ACCFFC0116
:101CD00034963491631708F4A6CF3296E491E61750
:101CE00008F4A1CFFC01329685909490462F431BB7
:101CF000342F47E0349F800C911C1124F40132965C
:101D000034913196E4913323A9F1EE2399F1CC88F3
:101D1000F4013596E491AD884F89442301F10E2EEC
:101D2000000CFF0BE30FF11DCE9EA001CF9E500DC6
:101D300011246C857D85460F571F6885798564174A
:101D400075076CF44E855F851D861C86FC013896F0
:101D5000E491AE9E400D511D11245F874E87EA88A5
:101D6000FB88088919894E855F856C857D85CE0144
:101D70000E94CE0BF4013496E4912C898C859D85CC
:101D8000E29F800D911D11248DCF6F927F928F92D3
:101D90009F92AF92BF92CF92DF92EF92FF920F93FA
:101DA0001F93CF93DF93EC016B015A013901480176
:101DB000E881F9810284F385E02D1995E881F981A4
:101DC0000288F389E02D87019301A501B601CE01B8
:101DD0001995A501480D591D41505109E881F98116
:101DE0000288F389E02D9301B601CE011995E881AF
:101DF000F9810088F189E02D9401A501B601CE0199
:101E00001995C60CD71CB60161507109E881F9819A
:101E10000088F189E02D9401A501CE011995E88192
:101E2000F9810688F789E02DCE01DF91CF911F91CE
:101E30000F91FF90EF90DF90CF90BF90AF909F9069
:101E40008F907F906F9019946F927F928F929F9254
:101E5000AF92BF92CF92DF92EF92FF920F931F93B8
:101E6000CF93DF935C01EB016A01490138018701DF
:101E7000DC01ED91FC916217730719F56416750684
:101E80002CF0962D872D3A01C92ED82E96012619B1
:101E900037092F5F3F4F048CF58DE02DA301BE0164
:101EA000C5011995DF91CF911F910F91FF90EF9090
:101EB000DF90CF90BF90AF909F908F907F906F906A
:101EC00008954615570591F42617370724F0892DF4
:101ED0004B01C22FD82F9E01281939092F5F3F4F80
:101EE000068CF78DE02DA601B401DACF0284F385CC
:101EF000E02D1995D501ED91FC910488F589E02D2F
:101F000083019401A601BE01C5011995D501ED918A
:101F1000FC910688F789E02DC501DF91CF911F91D3
:101F20000F91FF90EF90DF90CF90BF90AF909F9078
:101F30008F907F906F901994EF92FF920F931F9361
:101F4000DC011A960D911C911B9718962D913C91CE
:101F50001997ED91FC9100A0F1A1E02D7B0150E0DB
:101F600040E070E060E019951F910F91FF90EF90B5
:101F700008954F925F926F927F928F929F92AF924D
:101F8000BF92CF92DF92EF92FF920F931F93CF9366
:101F9000DF936C012B015A0139014801DC01ED91FD
:101FA000FC910284F385E02D1995E201640C751C07
:101FB000D601ED91FC91C615D7055CF40088F18936
:101FC000E02D87019401A501BE01C6011995219656
:101FD000EFCF0688F789E02DC601DF91CF911F91E1
:101FE0000F91FF90EF90DF90CF90BF90AF909F90B8
:101FF0008F907F906F905F904F9019948F929F92E7
:10200000AF92BF92CF92DF92EF92FF920F931F9306
:10201000CF93DF93EC015B014A016901E881F9810B
:102020000284F385E02D199595012C0D3D1D21505D
:102030003109E881F9810488F589E02D780184016E
:10204000A401B501CE011995E881F9810688F789C7
:10205000E02DCE01DF91CF911F910F91FF90EF9076
:10206000DF90CF90BF90AF909F908F9019948F92F8
:102070009F92AF92BF92CF92DF92EF92FF920F9317
:102080001F93CF93DF93EC015B014A016901780153
:10209000E881F9810284F385E02D1995C80CD91CDB
:1020A000860101501109E881F9810488F589E02D44
:1020B0009501A401B501CE011995E881F981068841
:1020C000F789E02DCE01DF91CF911F910F91FF9005
:1020D000EF90DF90CF90BF90AF909F908F9019942A
:1020E000EF92FF920F931F93DC01ED91FC9100A002
:1020F000F1A1E02D19951F910F91FF90EF90089598
:102100000F931F93DC01ED91FC91068CF78DE02D70
:1021100019951F910F9108950F931F93DC01ED9175
:10212000FC91048CF58DE02D19951F910F91089568
:10213000DC01ED91FC910084F185E02D19943F9232
:102140004F925F926F927F928F929F92AF92BF92C7
:10215000CF92DF92EF92FF920F931F93CF93DF9373
:102160005C017B014A016901390187E0680E711C3D
:1021700093E0759467949A95E1F72B01400E511EF8
:1021800010E000E0312CD0E0C0E0CE01877099274C
:10219000330C892B59F4FE0183E0F595E7958A9578
:1021A000E1F7E00FF11FE80DF91D349037FE0AC08A
:1021B00021E030E0A701B5016C0F7D1F82E893E0BC
:1021C0000E9498102196CC16DD06F9F68FEFE81ADA
:1021D000F80A060D171DE414F504A9F6DF91CF9156
:1021E0001F910F91FF90EF90DF90CF90BF90AF9035
:1021F0009F908F907F906F905F904F903F90089549
:102200002F923F924F925F926F927F928F929F9206
:10221000AF92BF92CF92DF92EF92FF920F931F93F4
:10222000CF93DF9300D000D0CDB7DEB73C016A0179
:102230003E832D83FC82EB825801A41AB50AB7FEB7
:1022400003C0B194A194B1088D809E80861A970A2C
:1022500097FE03C09194819491088A149B045CF0CA
:10226000902F812F0D811E819D838E839C2D8D2D1E
:102270006B01692F782F0C151D055CF09D818E81F7
:102280007E836D83692F782F902F812F8601C92E31
:10229000D82E1601201A310A2B012D813E81421AB7
:1022A000530A57FE03C0519441945108710137FEFF
:1022B00003C03FEFE31AF30AF594E7948D819E8102
:1022C000861797075CF5A1E0B0E0BA83A983C01632
:1022D000D1064CF1D301ED91FC910484F585E02DFC
:1022E0002B813C81A8016D817E818A149B041CF0A6
:1022F0004D815E81B801C3011995E418F508F7FE18
:102300000AC02D813E8189819A81280F391F3E8321
:102310002D83E20CF31C0F5F1F4FD9CF2FEF3FEF40
:102320003A832983D4CF26960FB6F894DEBF0FBE2A
:10233000CDBFDF91CF911F910F91FF90EF90DF9074
:10234000CF90BF90AF909F908F907F906F905F9055
:102350004F903F902F900895EF92FF920F931F930D
:10236000CF93DF93EC01EC80FD806E157F050CF0C0
:1023700070C057FF04C0240F351F50E040E08E812D
:102380009F81FA01E20FF31F8E179F071CF49C0137
:10239000241B350B121613060CF05BC0922F842FF2
:1023A0008695869586958E9DD0018F9DB00D1124C2
:1023B0006A0F7B1FAF8DB8A1A60FB71F477049F1F9
:1023C00088E0841B482F682F70E0FB01EE5EFA4F17
:1023D000E491281708F063C0621B71092FEF30E009
:1023E00002C0359527956A95E2F7E2230130110581
:1023F00039F0B0F10230110561F58C91E82702C087
:102400008C91E82BEC93941720F12C813D81A20F45
:10241000B31FE92FE41BE83078F00230110521F5F5
:102420008E2F9C9190959C932C813D81A20FB31F80
:1024300088508830B0F7E770EE2359F0F0E0E65F9F
:10244000FA4FE49101301105F9F010F10230110555
:1024500019F1DF91CF911F910F91FF90EF900895A7
:10246000E0958C91E823CECF81E00115110509F4A8
:1024700080E081959E2F8C932C813D81A20FB31F0C
:1024800098509830C0F7D7CF8C91E82BEC93E1CFE0
:10249000E0958C91E823FACF8C91E827F7CF0130B3
:1024A000110509F4ADCFE0F20230110509F4A5CF12
:1024B000AE0DBF1DAECF0F931F93CF93DF9377FF6A
:1024C00004C0260F371F70E060E0DC011496CD9148
:1024D000DC91FB01E20FF31FCE17DF071CF49E0116
:1024E000261B370B121613064CF5FA0157FD3796CB
:1024F000A3E0F595E795AA95E1F7EC9FD001ED9F54
:10250000B00DFC9FB00D11246A0F7B1FDC015F969C
:10251000ED91FC91E60FF71F4770552781E090E0A1
:1025200001C0880F4A95EAF7482F0130110559F08C
:10253000A8F02E0F3F1F02301105E1F0DF91CF917F
:102540001F910F9108952E0F3F1FE217F307B1F36C
:102550008191DF011197842B8C93F7CF80952E0FFB
:102560003F1FE217F30751F39191DF011197982371
:102570009C93F7CFE217F30709F38191DF011197DD
:1025800084278C93F7CF0F931F93FA01DC015696A3
:102590004C9156974230E9F04330A1F1413061F55A
:1025A00014964D915C91DA01AE1BBF0BFD01E21B4D
:1025B000F30B77FD0BC0DC0116964D915C9164170F
:1025C000750724F4AB01BF010E945B121F910F91AC
:1025D000089514964D915C91DA01A61BB70BBD01CD
:1025E00061507109DC0116964D915C91DA01AE1BC8
:1025F000BF0BFD01E21BF30B77FDE8CFAF010E949B
:10260000AC11E4CF16964D915C91DA01A61BB70B85
:10261000BD0161507109CDCF0F931F93FA01DC0109
:1026200056964C9156974230A9F0433091F1413083
:1026300019F514964D915C91DA01AE1BBF0BFD01AB
:102640003197F7FD04C0AB01BF010E94AC111F918F
:102650000F91089514964D915C91DA01A61BB70B6A
:10266000BD01DC0116964D915C91DA01AE1BBF0BEA
:10267000FD013197621B730BF7FDE9CFDC01169664
:102680004D915C91E417F50714F7AF010E945B12BE
:10269000DECF16964D915C91DA01A61BB70BBD01FA
:1026A000621B730BCECFFC0177FD64C080859185E2
:1026B000681779070CF05EC057FD5CC08285938572
:1026C000481759070CF056C086898230B1F0833024
:1026D00029F1813041F484819581841B950BAB01F4
:1026E000BC01615071092130310509F108F443C082
:1026F0002230310509F463C0089584819581DC019D
:10270000A61BB70BBD016150710986819781DC0161
:10271000A41BB50BAD0141505109E5CF86819781CE
:10272000861B970BBA01AC0141505109DCCFCA019D
:1027300057FD0796A3E095958795AA95E1F7A481A3
:10274000B5818A9F90018B9F300D9A9F300D112487
:10275000620F731F078CF0A1E02DE60FF71F477083
:10276000552721E030E001C0220F4A95EAF7808129
:10277000822B80830895CA0157FD079633E0959513
:1027800087953A95E1F7A481B5818A9F90018B9F47
:10279000300D9A9F300D1124620F731F078CF0A12A
:1027A000E02DE60FF71F4770552781E090E001C04C
:1027B000880F4A95EAF7809590818923DACFCA017C
:1027C00057FD079623E0959587952A95E1F7A48113
:1027D000B5818A9F90018B9F300D9A9F300D1124F7
:1027E000620F731F078CF0A1E02DE60FF71F4770F3
:1027F000552721E030E001C0220F4A95EAF7808199
:102800008227B7CF08958EBD00000DB407FEFDCF1F
:102810008EB50895EF92FF920F931F93CF93DF939E
:102820007C01C62F80919F039091A003009709F42B
:1028300059C02091A30331E03093720320937103B8
:102840001092700310926F03DC01ED91FC910190E6
:10285000F081E02D60E019958701EE24E394F12CDE
:10286000D1E0C15080919F039091A003CF3F91F19F
:10287000B0E2EB16F104D8F00E94D10A80919F03D8
:102880009091A0032091A303D0937203209371032E
:102890001092700310926F03DC01ED91FC91019096
:1028A000F081E02D60E01995EE24E394F12C809105
:1028B0009F039091A003F8016491DC01ED91FC91DC
:1028C0000190F081E02D1995BFEFEB1AFB0A0F5F25
:1028D0001F4FC7CFDF91CF911F910F91FF90EF90C6
:1028E0000C94D10AE091AF03F091B00390818091F4
:1028F000B5038095892380838701C15008F438C0CF
:10290000F801849120919D0330919E03232B29F09F
:102910000E9403140F5F1F4FF0CF28E030E040E823
:10292000E091AB03F091AC039091B303582F542383
:10293000D9F05081952B9083E091AD03F091AE03D7
:1029400090815091B403952B9083E091AD03F09169
:10295000AE0350819091B403909595239083469552
:1029600021503109E9F6D6CF508190959523E3CFD8
:10297000DF91CF911F910F91FF90EF9008951F93DA
:10298000CF93DF93EC018D8D9E8D009721F1162F53
:1029900029A131E0309372032093710310927003E8
:1029A00010926F03DC01ED91FC910190F081E02D1C
:1029B00060E019958D8D9E8DDC01ED91FC9101906B
:1029C000F081E02D612F19958D8D9E8DDF91CF9136
:1029D0001F910C94D10AADA5BEA59C918BA98095A1
:1029E00089238C938B8D9C8D892B31F0862FDF91E1
:1029F000CF911F910C94031428E030E080E8A9A542
:102A0000BAA599A9462F4823C1F04C91942B9C93C9
:102A1000ABA5BCA59C914AA9942B9C93ABA5BCA546
:102A20004C919AA9909594239C93869521503109B5
:102A300031F7DF91CF911F9108954C919095942398
:102A4000E6CF8CBD9DBD0895DF92EF92FF920F936C
:102A50001F93CF93DF9380919F039091A003892BC5
:102A600009F498C02091B7033091B8034091B9039D
:102A70005091BA0360E074E284EF90E00E948834E1
:102A800020513109410951095695479537952795A8
:102A90002093B80065E088E290E10E940A146091FA
:102AA0008603615082E893E00E94BF14209188035E
:102AB00030918903C901079697FD079633E09595F4
:102AC00087953A95E1F72091860330918703829F9D
:102AD0008001839F100D929F100D1124C091A103BE
:102AE000D091A20380919F039091A0030C0F1D1F12
:102AF000009709F48FC02091A30331E03093720353
:102B0000209371031092700310926F03DC01ED911A
:102B1000FC910190F081E02D60E41995EE24E3949E
:102B2000F12CDD24D39480919F039091A0030C1786
:102B30001D0709F446C0B0E2EB16F104D8F00E947C
:102B4000D10A80919F039091A0032091A303D0927A
:102B50007203209371031092700310926F03DC01D3
:102B6000ED91FC910190F081E02D60E41995EE2447
:102B7000E394F12C80919F039091A0036991DC0173
:102B8000ED91FC910190F081E02D1995BFEFEB1ACA
:102B9000FB0AC9CF80919D0390919E03892B31F050
:102BA0008091C0039091C1030E942115E091B1036F
:102BB000F091B20390818091B60380958923808340
:102BC00069CF0E94D10A80919F039091A003892B25
:102BD00009F461C02091BB033091BC034091BD0357
:102BE0005091BE0360E074E284EF90E00E9488346C
:102BF0002051310941095109569547953795279537
:102C00002093B800DF91CF911F910F91FF90EF902B
:102C1000DF900895E091AF03F091B003808190912F
:102C2000B503892B80830C171D0769F289912091C8
:102C30009D0330919E03232B19F00E940314F3CFC0
:102C400028E030E040E8E091AB03F091AC039091D4
:102C5000B303582F5423D9F05081952B9083E091E2
:102C6000AD03F091AE0390815091B403952B908306
:102C7000E091AD03F091AE0350819091B403909533
:102C800095239083469521503109E9F6CCCF5081A8
:102C900090959523E3CFE091B103F091B203808149
:102CA0009091B603892B8083ADCF1F93CF93DF9391
:102CB000EC01162F8D8D9E8D892BB1F12DA93EA98A
:102CC0004FA958AD60E074E284EF90E00E94883430
:102CD0002051310941095109569547953795279556
:102CE0002093B80066EA111167EACE010E94BF1472
:102CF0008D8D9E8D892B41F129AD3AAD4BAD5CADEB
:102D000060E074E284EF90E00E9488342051310941
:102D10004109510956954795379527952093B80055
:102D2000DF91CF911F9108958B8D9C8D892B21F080
:102D30008EAD9FAD0E942115EFA5F8A990818CA9B9
:102D4000809589238083CECFEFA5F8A980819CA9A7
:102D5000892B8083E5CF089590E080E00895CF939C
:102D6000C82F60E0813079F48AE30E94DD0860E0DA
:102D700089E30E94DD0861E088E30E94DD08C093DA
:102D80001402CF91089588E3C23049F40E94DD080F
:102D900060E08AE30E94DD0861E089E3EECF0E94F3
:102DA000DD0860E089E30E94DD0861E08AE3E5CFA9
:102DB0002F923F924F925F926F927F928F929F924B
:102DC000AF92BF92CF92DF92EF92FF920F931F9339
:102DD000CF93DF93CDB7DEB72C970FB6F894DEBF55
:102DE0000FBECDBF082F12E31A821982F12CE12CFD
:102DF000D12CC12C8BE30E943C09C80ED91E8CE358
:102E00000E943C09E80EF91E8DE30E943C092981CD
:102E10003A81280F391F3A832983115059F7E2E389
:102E2000F0E0C601BF010E9402379B01C701BF014C
:102E30000E9402376B0189819A81BF010E9402378B
:102E40007B0110912102173009F042C080911202DB
:102E5000909113022817390720F43093130220931E
:102E6000120280911002909111028217930720F4B0
:102E7000309311022093100280910E0290910F0264
:102E8000C816D90620F4D0920F02C0920E0280918B
:102E90000C0290910D028C159D0520F4D0920D022C
:102EA000C0920C0280910A0290910B02E816F9067A
:102EB00020F4F0920B02E0920A02809108029091B5
:102EC00009028E159F0520F4F0920902E092080293
:102ED00080901F0290902002B12CA12C032E000C98
:102EE000440B550B281939094A095B09A3E6B0E0E0
:102EF0000E947D3420911D0230911E0250E040E07E
:102F0000281939094A095B090E945E3449015A01AE
:102F10008FEF881A980AA80AB80A9C868B86409078
:102F20001B0250901C02712C612C9601DD0C440B8D
:102F3000550B2419350946095709A3E6B0E00E944C
:102F40007D342091190230911A0250E040E024199A
:102F50003509460957090E945E34DA01C901019614
:102F6000A11DB11D8F839887A987BA872F803884C8
:102F70004090170250901802712C612C9701FF0CA1
:102F8000440B550B2419350946095709A3E6B0E04F
:102F90000E947D34209115023091160250E040E0ED
:102FA00024193509460957090E945E34DA01C9011E
:102FB0000196A11DB11D8B839C83AD83BE83AB8124
:102FC000BC81BA83A9830F3F09F0C2C080915B0323
:102FD00002E0823009F4B9C003E0833009F4B5C0DF
:102FE00001E08111B2C0B401990C880B990B0E94C9
:102FF000D0356B017C012F813885B901330F880BE7
:10300000990B0E94D0352B013C01AC019B01C701FB
:10301000B6010E94B934A30192010E94263520E036
:1030200030E048EC52E40E9461364B015C0120E044
:1030300030E0A9010E945C3618160CF0B9C0C50139
:10304000B4010E949835623071050CF04EC04B817E
:103050005C81BA01550F880B990B0E94D0354B014A
:103060005C01AC019B01C701B6010E94B934A50106
:1030700094010E94263520E030E048EC52E40E94A2
:1030800061366B017C0120E030E0A9010E945C36D2
:1030900018160CF091C0C701B6010E949835623035
:1030A00071051CF5A5019401C301B2010E94B93458
:1030B000A50194010E94263520E030E048EC52E45E
:1030C0000E9461366B017C0120E030E0A9010E9482
:1030D0005C3618160CF074C0C701B6010E94983512
:1030E000009114026230710584F18B859C858215F4
:1030F00093053CF4A981BA8182E090E0A215B30562
:1031000014F081E090E02B853C8549815A81241799
:1031100035072CF42416350614F483E090E0209152
:1031200007022817190609F04FC02091A0022F5F4F
:103130002093A0022091A00200911402233018F0E5
:10314000082F1092A00280930702802F0E94AF16D2
:10315000013041F0173031F00230C9F18B819C8190
:103160009C878B872B853C8581E090E012161306A7
:1031700034F4C9012536310514F084E690E02C962C
:103180000FB6F894DEBF0FBECDBFDF91CF911F9178
:103190000F91FF90EF90DF90CF90BF90AF909F90F6
:1031A0008F907F906F905F904F903F902F900895F9
:1031B000C501B401905845CFC701B60190586DCFF5
:1031C000C701B60190588ACF1092A002B3CFAF8149
:1031D000B885BC87AB87C6CF8FEF0C94D8160E94FA
:1031E000AB0920919C0230919D02621B730B6931E7
:1031F000710548F489E190E0861B970BBC0190E0D3
:1032000080E00C9478090895CF93DF93EC0161E09E
:1032100086E10E94DD0880912302882321F060E08E
:1032200088E10E94DD08D695C795BE0190E080E058
:103230000E94780960E086E10E94DD0861E088E193
:10324000DF91CF910C94DD08FC01A2E7B2E090E0A1
:103250002491222331F09E3121F02D9331969F5FEE
:10326000F7CFE92FF0E0EE58FD4F208382E792E0A0
:1032700008952091880330918903C901079697FD2D
:10328000079623E0959587952A95E1F72091860387
:1032900030918703829FA001839F500D929F500D14
:1032A000112470E060E08091A1039091A2030C943E
:1032B0005C380E943919E2E8F3E015861486178617
:1032C000168681E0848B858B81E090E0938B828BE6
:1032D000918B808B08958F929F92AF92BF920F93A4
:1032E0001F93CF93DF93CDB7DEB7A1970FB6F894B6
:1032F000DEBF0FBECDBF19A2423008F44AE08E01F6
:103300000F5D1F4F842E912CB12CA12CA50194018F
:103310000E948834E62FB901CA01EA3044F5E05D25
:10332000D801EE938D01232B242B252B79F790E0E8
:1033300080E0109769F0FD0101900020E9F73197D6
:10334000AF014A1B5B0BBD0182E893E00E94B90903
:10335000A1960FB6F894DEBF0FBECDBFDF91CF911F
:103360001F910F91BF90AF909F908F900895E95C4F
:10337000D7CF009769F0FC0101900020E9F7319761
:10338000AF01481B590BBC0182E893E00C94B909CA
:1033900090E080E00895CF92DF92EF92FF920F933A
:1033A0001F93CF93DF936C01C2E8D3E00A851B859E
:1033B00028853985EE24E394F12C50E040E070E05C
:1033C00060E0CE010E94C50E288539850BE010E033
:1033D00050E040E070E060E0CE010E94B90F81E073
:1033E0008C8B8D8B1B8A1A8A198A188AF601019098
:1033F0000020E9F73197EC19FD0986E08E9F9001D6
:103400008F9F300D112488859985821B930B96958B
:1034100087959D878C8782E090E09F878E87C60185
:103420000E94B91981E090E09B8B8A8B998B888BE5
:10343000DF91CF911F910F91FF90EF90DF90CF9090
:103440000895BC0190E080E04AE00C946B1961E0C3
:103450008BE00C94DD0860E08CE00E94DD0860E009
:103460008AE00E94DD0861E08CE00E94DD0860E0F7
:103470008CE00C94DD0860E08CE00E94DD0861E0E7
:103480008AE00E94DD0861E08CE00E94DD0860E0D7
:103490008CE00C94DD081F93CF93DF93E82FF0E0CE
:1034A000EE0FFF1FE655FB4FC591D4910E94271ADE
:1034B00060E08BE00E94DD080E942B1A0E942B1A0C
:1034C0000E942B1A0E943B1A0E942B1A14E10E94A0
:1034D0002B1A1150E1F70E94271A60E08BE00E943E
:1034E000DD080E94271A60E08BE00E94DD080E9440
:1034F0003B1A0E942B1A0E942B1A0E942B1A0E9420
:103500003B1A10E1C0FF1FC00E943B1AD695C79519
:103510001150C1F70E942B1A0E942B1A0E942B1ADD
:103520000E942B1A0E94271A60E08BE00E94DD089F
:1035300060E08CE00E94DD0860E08AE0DF91CF91DE
:103540001F910C94DD080E942B1AE0CF0E9457387F
:1035500085ED8093BC008091E2029091E302A091FE
:10356000E402B091E5020796A11DB11D23E0B695D6
:10357000A795979587952A95D1F72091BC0024FDB2
:1035800003C010922B0308954091E2025091E30290
:103590006091E4027091E502452B462B472B69F3BD
:1035A0000097A105B10541F02AE22A95F1F700C084
:1035B0000197A109B109E1CF8091E1020C942B0A96
:1035C0000C9450340C9448342F923F924F925F9257
:1035D0006F927F928F929F92AF92BF92CF92DF9223
:1035E000EF92FF920F931F93CF93DF9300D000D001
:1035F00000D01F92CDB7DEB70E94EC1883E00E9486
:10360000B408892B09F056C01092980210929902C2
:1036100010929A0210929B0282E390E00E94041999
:1036200064E670E080E090E00E94780982E390E038
:103630000E94041964E670E080E090E00E9478093E
:103640001B8283E00E94B408892B69F42B812A3005
:1036500051F064E670E080E090E00E9478093B81E0
:103660003F5F3B83EECF40910602415049838091FA
:103670002102811103C081E08093210273E0872E33
:10368000E5E0BE2EAA24A394F5E0CF2ED12CADE028
:103690004A2E512CB7E16B2E712C15E3212E312CC3
:1036A0006B816A3009F09EC186E0809321028FEF22
:1036B0008093050285E00E94B408892B19F486E006
:1036C0008093210280912102898380915803811186
:1036D00005C0809105029981891799F010925803CD
:1036E000E981E33011F40C94EC2808F0D8C2E13001
:1036F00009F4C6C3E23009F415C380912102809316
:10370000050280912102883009F04DC760915A036B
:1037100070E0FB01EE0FFF1FE65EFB4F8591949179
:103720009A838983FB01E651FC4F149100915B035E
:103730000E94591986E08093960380939703CC24C6
:10374000C394D12CD0929503C0929403D09293034A
:10375000C092920310928F0310928E0310929103E5
:1037600010929003612F70E090E080E040E10E94B1
:103770006B1911E0109396031093970376E4A72E2C
:10378000B12CB0928F03A0928E03109291031092ED
:1037900090038CE593E00E94B91982E08093960330
:1037A00080939703B0928F03A0928E038CE190E0F8
:1037B0009093910380939003D0929503C0929403C9
:1037C000D0929303C092920389819A810E94211A18
:1037D00010939603109397038CE30E943C0905977E
:1037E000ACF0B0928F03A0928E0382E190E09093B0
:1037F000910380939003013009F4A7C508F49EC596
:10380000023009F4A5C5033009F4A5C50E942415AA
:1038100023E6822E912CA12CB12C37E7C32ED12C7C
:103820004AEF242E312C412C512C0E94EC18782E7A
:103830008093900283E00E94D8168B8382E00E94DE
:10384000D816682E81E00E94D8168D8390911402BC
:1038500099838CE30E943C0900918C0310918D03A5
:1038600005970CF43AC6ED812E2F30E050E040E091
:103870002150310941095109A4E7B0E00E947D348B
:10388000A50194010E945E342D5F3F4F4F4F5F4F63
:10389000822F90E09E838D839601281B390BA8010F
:1038A00043515109F12CE12C09E010E0BC0182E800
:1038B00093E00E94B90F40918C0350918D03998140
:1038C00043515109913009F049C5EE24E394F12C9C
:1038D00007E010E02D813E8170E060E082E893E037
:1038E0000E94B90F262D30E050E040E02150310910
:1038F00041095109A4E7B0E00E947D34A50194017B
:103900000E945E342D5F3F4F4F4F5F4FE22FF0E03C
:10391000FE83ED8396012E1B3F0B40918C0350914B
:103920008D034C505109F12CE12C06E010E0BF0151
:1039300082E893E00E94B90F40918C0350918D036F
:10394000F9814C505109F23009F026C5EE24E39478
:10395000F12C2D813E8170E060E082E893E00E94CE
:10396000B90F6B81262F30E050E040E02150310943
:1039700041095109A4E7B0E00E947D34A5019401FA
:103980000E945E342D5F3F4F4F4F5F4F822F90E07C
:103990009C838B839601281B390B40918C0350919B
:1039A0008D0346505109F12CE12C06E010E0BC01DA
:1039B00082E893E00E94B90F40918C0350918D03EF
:1039C000998146505109933009F004C5EE24E394DF
:1039D000F12C2B813C8170E060E082E893E00E9452
:1039E000B90F15C58981823009F408C10CF0EFC008
:1039F000882309F4F5C0813009F4F9C00E945919EF
:103A000082ED91E00E9424190E94CB1920918A0333
:103A100030918B0399806AE0969EA0011124445F47
:103A20005F4FEE24E394F12C0AE010E070E060E0D8
:103A300082E893E00E94B90F81E090E099809110B4
:103A400002C090E080E0909395038093940390935C
:103A5000930380939203D0928F03C0928E0350926F
:103A600091034092900386EC91E00E9424190E94F9
:103A7000B91981E090E0E981E13011F490E080E053
:103A80009093950380939403909393038093920370
:103A9000D0928F03C0928E03709291036092900334
:103AA00089EB91E00E9424190E94B91981E090E00D
:103AB000F981F23011F490E080E0909395038093C7
:103AC00094039093930380939203D0928F03C092B8
:103AD0008E0321E230E030939103209390038DEA2E
:103AE00091E00E9424190E94B9198CE30E943C09BC
:103AF0000597FCF081E090E03981333011F490E0DB
:103B000080E0909395038093940390939303809324
:103B10009203D0928F03C0928E038BE290E0909339
:103B200091038093900383EA91E00E9424190E94FC
:103B3000B91981E090E0E981E43011F490E080E08F
:103B400090939503809394039093930380939203AF
:103B5000D0928F03C0928E033092910320929003F3
:103B600088E991E00E9424190E94B9190E94241545
:103B700083E00E94B408892BD9F382E00E94B40844
:103B8000892BB1F384E00E94B408892B89F312E3F6
:103B9000115009F444C083E00E94B408019711F069
:103BA0000C94D22882E00E94B408019711F00C9482
:103BB000D22884E00E94B408019711F00C94D22816
:103BC00064E670E080E090E00E947809E1CF99819E
:103BD0009330B9F0943009F011CFB09221020ECF9A
:103BE000A0922102A09297021092960207CFE2E0E3
:103BF000E0932102F981F093950200CF8092210297
:103C0000FDCE8CE30E943C09059724F024E020932C
:103C10002102F4CEB092210234E03983EFCE83E06A
:103C20000E94B408892B21F0809106028093210222
:103C300084E690E00E94041962E370E080E090E086
:103C40000E94780984E690E00E94041962E370E023
:103C500080E090E00E9478092ACDF981F150F98343
:103C60008CE30E943C09059734F42981233019F430
:103C70009A949A949982498145302CF447FF04C064
:103C800064E0698301C0198282E390E00E94041914
:103C900068EC70E080E090E00E94780901CDF98145
:103CA000F63009F4EEC1F73009F027CD62E370E099
:103CB0007093200260931F024CE251E050931E0269
:103CC00040931D022CEF33E0309313022093120235
:103CD0008AE590E0909311028093100270931C0289
:103CE00060931B0250931A024093190230930F0203
:103CF00020930E0290930D0280930C027093180291
:103D000060931702509316024093150230930B02F2
:103D100020930A02909309028093080283E0809323
:103D2000940203C029812093060210929302EAE7CD
:103D3000F4E0E491E0935A031092920210929102FF
:103D400081E0809395020E94591910927403398181
:103D5000323009F080C08FE092E00E9424190E9466
:103D6000CB1985E090E090938F0380938E038CE0D5
:103D700090E0909391038093900389E092E00E94F9
:103D800024190E94B91920918A0330918B03EE24E3
:103D9000E394F12C04E110E044E150E070E060E0D5
:103DA00082E893E00E94240F40918C0350918D0390
:103DB0004B50510920918A0330918B038A0170E0A6
:103DC00060E082E893E00E94240F80918C03909140
:103DD0008D03099722E030E030938F0320938E0308
:103DE00090939103809390038BEE91E00E942419AD
:103DF0000E94B91980918C0390918D03099727E354
:103E000030E030938F0320938E039093910380933F
:103E1000900386EE91E00E9424190E94B9198091C6
:103E20008C0390918D03099720918A0330918B0325
:103E30002951310930938F0320938E03909391037E
:103E40008093900381EE91E00E9424190E94B91999
:103E50000E94241552CC8EEF91E00E9424190E94FA
:103E6000CB1985E090E090938F0380938E038CE0D4
:103E700090E0909391038093900380EF91E07FCF47
:103E800080E580930402109292021092910249817F
:103E900040939702109298021092990210929A02FF
:103EA00010929B028FEF809375030E9459196981CC
:103EB00080E492E0633029F08981813031F481E33C
:103EC00092E00E9424190E94CB1981E090E0909327
:103ED000950380939403909393038093920320918E
:103EE0008A0330918B03EE24E394F12C04E110E07B
:103EF00044E150E070E060E082E893E00E94240F2B
:103F000020918A0330918B0300E210E040E250E000
:103F100070E060E082E893E00E94240F85E090E08A
:103F200090938F0380938E038CE090E090939103A5
:103F30008093900304E110E021E630E04BE050E094
:103F400061E670E082E893E00E94240F8BE292E049
:103F50000E9424190E94B91991E3998308E010E0A6
:103F600087E1E82EF12C10938F0300938E03F092DB
:103F70009103E0929003698182E893E00E94F30D3F
:103F8000015F1F4FE981EF5FE983E93361F720911A
:103F90008A0330918B03EE24E394F12C04E210E0C9
:103FA00044E250E070E060E082E893E00E94240F79
:103FB00040918C0350918D034B50510920918A03FD
:103FC00030918B038A0170E060E082E893E00E9408
:103FD000240F80918C0390918D03099722E030E0AB
:103FE00030938F0320938E039093910380939003DB
:103FF00086E292E00E9424190E94B91980918C03F4
:1040000090918D03099727E330E030938F0320933D
:104010008E03909391038093900381E292E00E943B
:1040200024190E94B91980918C0390918D030997EE
:1040300020918A0330918B032951310930938F03EA
:1040400020938E0390939103809390038CE192E0F0
:104050000E9424190E94B9190E9424158091060219
:10406000823021F080910502873031F481E090E0C8
:104070000E94E21A80935A038091210280930602E3
:104080003CCB60915A0381E090E00E94E01A60917D
:10409000060290E080E00E94E01A609123028BE02B
:1040A00090E00E94E01A609122028CE090E00E9471
:1040B000E01A0CE513E024E130E03A832983F801AB
:1040C00061918F0189819A810E94E01A29813A8148
:1040D0002F5F3F4F3A8329832E31310581F760915D
:1040E0005B0386E090E00E94E01AF0905A03EF2D07
:1040F000F0E0EE0FFF1FE65EFB4FC590D4903091CD
:10410000060239830E9459198DEB92E00E9424190E
:104110000E94CB1981E090E09093950380939403E3
:10412000909393038093920385E090E090938F03A4
:1041300080938E030CE010E01093910300939003A2
:1041400087EB92E00E9424190E94B91986E290E060
:1041500090938F0380938E031093910300939003A9
:104160004981423041F0433009F4E5C0413049F41F
:1041700089E992E002C08AEA92E00E9424190E9432
:10418000B91985E090E090938F0380938E0384E1CA
:1041900090E0909391038093900383E992E00E94D2
:1041A00024190E94B91986E290E090938F038093BE
:1041B0008E03E4E1F0E0F0939103E0939003F7E2E3
:1041C00089E892E0FF15B0F02FE182E892E02F1528
:1041D00088F037E188E792E03F1560F04FE086E72E
:1041E00092E04F1538F067E084E792E06F1510F029
:1041F00082E792E00E9424190E94B91905E010E0BC
:1042000010938F0300938E03FCE1AF2EB12CB0927C
:104210009103A09290038CE692E00E9424190E94E0
:10422000B91986E290E090938F0380938E03B09249
:104230009103A09290036F2D67706F5F70E090E024
:1042400080E04AE00E946B1910938F0300938E0365
:10425000A4E2EA2EF12CF0929103E09290038EE515
:1042600092E00E9424190E94B919E6E2F0E0F0936E
:104270008F03E0938E03F0929103E0929003C601C6
:104280000E94211A10938F0300938E030CE210E01A
:10429000109391030093900388E592E00E94241903
:1042A0000E94B91926E230E030938F0320938E03E9
:1042B00010939103009390038CE593E00E94B91949
:1042C00080918A0390918B038254910997FD019606
:1042D0009595879590938F0380938E0384E390E068
:1042E00090939103809390038CE492E00E942419B0
:1042F0000E94B9190E94241535E0398384E690E0C4
:104300000E94041964E670E080E090E00E94780961
:104310004981415049834111F1CF68EB7BE080E056
:1043200090E00E947809809106028093210281E04A
:1043300080935803E2C983EA92E01FCF89EE92E0AE
:104340000E9424190E94B91961CA8FED92E0F8CF3A
:1043500085ED92E0F5CF8BEC92E0F2CFF12CE12CE1
:1043600007E010E027E730E070E060E082E893E0EB
:104370000E94B90F40918C0350918D034351510914
:10438000EE24E394F12C2D813E8170E060E082E820
:1043900093E00E94C50EA6CAF12CE12C06E010E0C5
:1043A00027E730E070E060E082E893E00E94B90F18
:1043B00040918C0350918D034C505109EE24E394AD
:1043C000F12C2D813E8170E060E082E893E00E9454
:1043D000C50EC7CAF12CE12C06E010E027E730E05B
:1043E00070E060E082E893E00E94B90F40918C0396
:1043F00050918D0346505109EE24E394F12C2B810A
:104400003C8170E060E082E893E00E94C50EF3E139
:10441000F71560F10E94AB09A20191010E94883456
:1044200021E030E06D3771058105910510F030E035
:1044300020E03093930320939203109295031092FF
:10444000940380918C0390918D030D9722E330E0CB
:1044500030938F0320938E03909391038093900366
:104460008EEE92E00E9424190E94B9190E94241530
:1044700083E00E94B408019759F482E00E94B408D6
:10448000019731F484E00E94B408019709F4CDC982
:104490008091060280932102109298021092990254
:1044A00010929A0210929B022A960FB6F894DEBFE1
:1044B0000FBECDBFDF91CF911F910F91FF90EF9075
:1044C000DF90CF90BF90AF909F908F907F906F9034
:1044D0005F904F903F902F90089510929503109207
:1044E00094031092930310929203A801435151092F
:1044F000EE24E394F12C03E110E029E130E070E0D8
:1045000060E082E893E00E94B90F80918C03909163
:104510008D030D9721E030E030938F0320938E03BD
:10452000909391038093900389EF92E00E94241965
:104530000E94B919272D30E050E040E021503109A8
:1045400041095109A4E6B0E00E947D34A50194011F
:104550000E945E342F5F3F4F4F4F5F4FE22FF0E0DE
:10456000FA83E98325E630E02E1B3F0B40918C0354
:1045700050918D0343515109BF01675E7F4FF12C6C
:10458000E12C82E893E00E94B90F40918C03509196
:104590008D0343515109EE24E394F12C29813A8192
:1045A00069E170E01ACA843009F06FC630915B038C
:1045B0003D8395E0292E312C2DE0622E712C33E6BF
:1045C000832E912CA12CB12C4EE7442E512C4D81E1
:1045D00040935B030E94591984E293E00E942419DE
:1045E0000E94CB196D81862F90E020918A03309133
:1045F0008B03633008F087C18AE0689FA001112413
:10460000445F5F4FEE24E394F12C09E010E070E08A
:1046100060E082E893E00E94B90F81E090E0ED81D4
:10462000E11102C090E080E09093950380939403A1
:10463000909393038093920330928F0320928E0382
:1046400070929103609290038FE193E00E9424198D
:104650000E94B91981E090E0FD81F13011F490E001
:1046600080E09093950380939403909393038093B9
:10467000920330928F0320928E0327E130E0309333
:1046800091032093900384E193E00E9424190E94F7
:10469000B91981E090E03D81323011F490E080E082
:1046A0009093950380939403909393038093920344
:1046B00030928F0320928E0381E290E090939103D9
:1046C0008093900389E093E00E9424190E94B91915
:1046D00081E090E0909395038093940390939303EB
:1046E0008093920320918A0330918B0340918C0335
:1046F00050918D0347515109EE24E394F12C01E0D0
:1047000010E070E060E082E893E00E94C50E0E9435
:1047100024150E94EC1883E00E94D816898382E059
:104720000E94D8168B8381E00E94D8162091140233
:104730002F8390E0B0E0A0E09C01AD012150310951
:1047400041095109ADE7B0E00E947D34A501940113
:104750000E945E3469017A016FEFC61AD60AE60A32
:10476000F60AD12C92012C193D0940918C035091ED
:104770008D0345515109F12CE12C06E010E0B60102
:1047800082E893E00E94B90F40918C0350918D0311
:104790008F8145515109813009F0E3C0EE24E39443
:1047A000F12C960170E060E082E893E00E94B90F7E
:1047B0009B81292F30E050E040E021503109410930
:1047C0005109ADE7B0E00E947D34A50194010E943B
:1047D0005E3469017A01EFEFCE1ADE0AEE0AFE0AB4
:1047E000D12C92012C193D0940918C0350918D03DD
:1047F0004E505109F12CE12C06E010E0B60182E8A0
:1048000093E00E94B90F40918C0350918D03FF817A
:104810004E505109F23009F0C0C0EE24E394F12C5F
:10482000960170E060E082E893E00E94B90F698130
:10483000262F30E050E040E0215031094109510974
:10484000ADE7B0E00E947D34A50194010E945E3482
:1048500069017A018FEFC81AD80AE80AF80AD12C40
:1048600092012C193D0940918C0350918D034750C2
:104870005109F12CE12C06E010E0B60182E893E04A
:104880000E94B90F40918C0350918D039F81475036
:104890005109933009F09DC0EE24E394F12C960168
:1048A00070E060E082E893E00E94B90F0E94241556
:1048B00083E00E94B408019759F482E00E94B40892
:1048C000019731F484E00E94B408019709F421CFE4
:1048D00083E00E94B408892B09F4A8C482E00E94F6
:1048E000B408892B09F091C0ED81E150ED834D8131
:1048F00044300CF0A9C4FD81F7FF02C00C94712D67
:1049000021E02983B1C40397EAE0E89FA001E99F71
:10491000500D1124445F5F4FEE24E394F12C09E025
:1049200010E070E060E082E893E00E94B90F81E05F
:1049300090E0FD81F33011F490E080E090939503D6
:1049400080939403909393038093920330928F0308
:1049500020928E0370929103609290038EEF92E00A
:10496000B3CEF12CE12C06E010E0960170E060E09F
:1049700082E893E00E94B90F40918C0350918D031F
:1049800045515109EE24E394F12C960170E060E06A
:1049900082E893E00E94C50E0BCFF12CE12C06E0DB
:1049A00010E0960170E060E082E893E00E94B90FA9
:1049B00040918C0350918D034E505109EE24E394A5
:1049C000F12C960170E060E082E893E00E94C50E51
:1049D0002ECFF12CE12C06E010E0960170E060E0B3
:1049E00082E893E00E94B90F40918C0350918D03AF
:1049F00047505109EE24E394F12C960170E060E0F9
:104A000082E893E00E94C50E51CF84E00E94B40872
:104A1000892B09F06CCFFD81FF5FFD8368CF29856D
:104A2000213009F0C9C490E080E00E94CE352DEC21
:104A30003CEC4CE45FE30E9461360E949835209183
:104A400004022617170614F46093040220919602BC
:104A5000211123C02091970221112BC02091040223
:104A6000281538F581E0809396020E94AB09609387
:104A700098027093990280939A0290939B0284E625
:104A800090E00E94041964E670E080E090E00E94EB
:104A9000780984E690E00E94041982E00E94B4083C
:104AA000892BA9F582E00E94B408892BB1F18FEF20
:104AB00035C010929702209103023981320F398359
:104AC000309393023033D4F0609304021092930237
:104AD000109292021092910280910402853008F4A3
:104AE00085E080930402E09193020E2E000CFF0BF0
:104AF000E658FB4FE491E0935A03CFCF498147FF3B
:104B0000EBCF609304028FE280939302E1CF84E0C5
:104B10000E94B408892B31F24FC481E080930302D4
:104B200082E390E00E94041968EC70E080E090E07D
:104B30000E94780981E08093970210929602109269
:104B400098021092990210929A0210929B0234C419
:104B500045284628472809F452C40E94AB09C616C6
:104B6000D706E806F90608F447C449C48FEF64C4C1
:104B70008CE493E093C497FD019695958795909367
:104B80008F0380938E0382E090E090939103809353
:104B900090038EE293E022C6F985F23019F0F730E7
:104BA00009F024C620915A03298380919502882315
:104BB00041F010929502822F0E944B1A3981309356
:104BC00059030E94EF180E94EC186C01982E8093F4
:104BD00090024985423079F460E5681760F49927BE
:104BE00020919102309192022817390720F4909376
:104BF000920280939102E9818E2F90E0FC01E651B0
:104C0000FC4F24912A87FC01EE0FFF1FE65EFB4F4D
:104C10008591949198878F83E0911002F091110211
:104C2000FC83EB8320911202309113023E832D838B
:104C30008090930280917503881609F45EC02090DD
:104C40008C0330908D03292D30E050E040E021505E
:104C5000310941095109ADE1B0E00E947D3423E6FC
:104C600030E040E050E00E945E3429013A016FEFED
:104C7000461A560A660A760A85E0889EB001112413
:104C8000FB01F595E795FA83E9835F01F4E0AF0E48
:104C9000B11C0EE110E004191509A1014A52510995
:104CA000F12CE12C22E030E0B50182E893E00E9493
:104CB000B90FA1014C50510944195509EE24E39450
:104CC000F12C820122E030E0B50182E893E00E94FD
:104CD000B90F40918C0350918D034A52510969815B
:104CE0007A81695F7F4FF12CE12C0EE110E021E029
:104CF00030E082E893E00E94B90F2985273009F45B
:104D000079C030E5391508F043C0809174038915E6
:104D100078F5C092740381E090E0909393038093C0
:104D20009203109295031092940384E290E0909382
:104D30008F0380938E030CE010E010939103009397
:104D400090034A85642F70E090E080E040E10E948B
:104D50006B1984E390E090938F0380938E031093FC
:104D60009103009390038F8198850E94211A10C0AF
:104D70008091010290E0099620918A0330918B0383
:104D80002C503109821793071CF08CE380930102A9
:104D90000E94241580927503809193028F320CF04B
:104DA0006FC08F5F8093930282E00E94B408892BCA
:104DB000B1F482E390E00E94041968EC70E080E0B6
:104DC00090E00E9478098FEF809305021092930281
:104DD00081E0809395021092920210929102E091EC
:104DE00093020E2E000CFF0BE658FB4FE491E0936C
:104DF0005A03FCC48EE190E090938F0380938E035E
:104E00000CE010E01093910300939003EE24E394E0
:104E1000F12CF0929303E09292031092950310927A
:104E200094038CE893E00E9424190E94B919EEE1E2
:104E3000F0E0F0938F03E0938E03109391030093BF
:104E400090038D819E810E94211A85E590E09093C8
:104E50008F0380938E031093910300939003F0923D
:104E60009303E0929203109295031092940388E8C2
:104E700093E00E9424190E94B9198B819C8175CFFF
:104E80001092930280912102873009F08DCF80919A
:104E900094029FEF980F90939402811185CF6091B7
:104EA00012028091130260931F028093200280916E
:104EB00010029091110290931E0280931D028D3773
:104EC000910530F48CEF93E090931E0280931D02C5
:104ED00082E090E00E94E01A6091200283E090E07E
:104EE0000E94E01A60911D0284E090E00E94E01AA6
:104EF00060911E0285E090E00E94E01A8CE30E941F
:104F00003C0905970CF46AC060910E0280910F0273
:104F100060931B0280931C0280910C0290910D0201
:104F200090931A02809319028D37910530F48CEF1B
:104F300093E090931A028093190287E090E00E9418
:104F4000E01A60911C0288E090E00E94E01A6091F3
:104F5000190289E090E00E94E01A60911A028AE04A
:104F600090E00E94E01A8CE30E943C090597B4F19E
:104F70008DE30E943C0905978CF180910A02909183
:104F80000B0290931802809317028091080290916F
:104F9000090290931602809315028D37910530F423
:104FA0008CEF93E0909316028093150260911B02A0
:104FB00088E290E00E94E01A60911C0289E290E091
:104FC0000E94E01A609119028AE290E00E94E01AC1
:104FD00060911A028BE290E00E94E01A90E080E07B
:104FE0000E94E21A8093210288EE93E00E94041945
:104FF000DBCE8CE593E00E94B9191AC592E05916F0
:10500000F1F0951564F0E1E05E1699F080912202CE
:1050100031E0832780932202512C11E02CC0F3E071
:105020005F16C9F024E05212F1CF4092210210E045
:1050300022C080912302852580932302EECF8981AF
:105040009A8101969A8389830A973CF38FEF9FEFA9
:105050009A838983E2CF1AE089E190E00E940419E3
:1050600069E170E080E090E00E9478091150A1F7BA
:1050700087E08093210282E390E00E94041966E9B0
:1050800070E080E090E00E94780989819A81019621
:1050900079F483E00E94B408892B89F382E00E94AE
:1050A000B408892B61F384E00E94B408892B39F39A
:1050B0001111ABC3F0915A03F983809159038F17F3
:1050C00009F4F2C98F2F0E944B1A298120935903AA
:1050D0000E94AB0960939C0270939D0280939E0294
:1050E00090939F0280910202882309F4DDC91092F7
:1050F000020284E690E00E94041964E670E080E019
:1051000090E00E94780984E690E00E94041964E629
:1051100070E080E090E00E94780984E690E02A96B2
:105120000FB6F894DEBF0FBECDBFDF91CF911F91B8
:105130000F91FF90EF90DF90CF90BF90AF909F9036
:105140008F907F906F905F904F903F902F900C9436
:105150000419E981FA81E45AFC4F80818F5F8E3710
:105160000CF080E2808359CF84E00E94B408892B40
:1051700009F053CF89819A81019639F45394F5E06F
:1051800011E05F1278CF512C76CFE981FA81E45A91
:10519000FC4F80818150808380320CF03ECF2DE720
:1051A00020833BCF83E00E94B408892B11F40C9438
:1051B0000F1E82E00E94B408892B11F40C942D1E5E
:1051C00084E00E94B408892B11F00C943B1E3981B5
:1051D0003F5F39830C943B1E0E94AB096093980299
:1051E0007093990280939A0290939B020C94521FA1
:1051F00080910602809321025DCF83E00E94B40873
:10520000892B09F4FBCE82E00E94B408892B09F0B7
:10521000ABCFE981FA81319609F09BCF5A943FEFE9
:105220005312FBCE11E084E0582E25CF3D8134305F
:10523000BCF082E390E00E94041968EC70E080E02A
:1052400090E00E9478091DC082E390E00E9404195A
:1052500068EC70E080E090E00E9478091D82B7C998
:105260009D8197FDE6CF198282E390E00E940419A8
:1052700068EC70E080E090E00E94780929812111BB
:10528000A6C98091060280932102309121023987BC
:10529000832F8D7F813009F07FCC0E94EF180E9410
:1052A000EC18882E8093900299276091910270915A
:1052B00092026817790708F4BC0170939202609318
:1052C000910210915A03EAE7F4E0198284911817C9
:1052D00039F049814F5F498331964033B9F71982DC
:1052E0008981809393029985933009F098CB82E06D
:1052F0000E94B408892B19F50E94AB0960939802AB
:105300007093990280939A0290939B0282E390E0BB
:105310000E94041968EC70E080E090E00E94780937
:105320001F5F10935A03E981EF5FE0939302E0332C
:1053300011F410929302103310F010925A0384E08B
:105340000E94B408892B51F5F0919302F9830E94D1
:10535000AB09609398027093990280939A0290939C
:105360009B0282E390E00E94041968EC70E080E008
:1053700090E00E94780980915A03815080935A03EB
:10538000998191509093930297FF03C09FE290936D
:105390009302803318F08FE280935A03E0919302D6
:1053A00080912202811108C00E2E000CFF0BE658DE
:1053B000FB4FE491E0935A03409098025090990279
:1053C00060909A0270909B027301620168E8C60EB9
:1053D00063E1D61EE11CF11C0E94AB09C616D7067C
:1053E000E806F90608F0B4CB45284628472839F0E6
:1053F00082E3881508F0B1CB88E080932102C09049
:105400009602909104029983E0915A03ED83F0E0B3
:10541000EE0FFF1FE65EFB4F45905490D090930235
:10542000F0912102FB8380917503D81609F4A2C084
:105430008D1508F09BCB83E08093000281E090E023
:105440009093930380939203109295031092940388
:1054500084E290E090938F0380938E038CE090E041
:1054600090939103809390032D818EE793E02832EF
:10547000A8F43D8184E793E0303280F44D818AE6E0
:1054800093E0483158F46D8180E693E0603130F468
:105490008D81883008F46CCB86E593E00E94241956
:1054A0000E94B9199D81977034E0632E712CB12C44
:1054B000A12CE92FF0E0FE83ED8347E1242E312C6F
:1054C000EE24E394F12C2D813E812A153B0511F049
:1054D000F12CE12C0BE010E02EE030E045E150E053
:1054E000B30182E893E00E94B90F81E090E0ED8182
:1054F000FE81EA15FB0511F490E080E0909395039E
:10550000809394039093930380939203C301049632
:1055100090938F0380938E03309291032092900397
:1055200061E36A0D82E893E00E94F30DFFEFAF1A8A
:10553000BF0A2FE0620E711C38E0A316B10409F017
:10554000BFCF85E690E090938F0380938E038CE02D
:1055500090E0909391038093900381E090E090938A
:105560009303809392031092950310929403C201C7
:105570000E94211A00918A0310918B030350110994
:10558000912CB12CA12C41E0841A9108A108B108FA
:105590009801012E000C440B550B21503109410993
:1055A0005109C501B4010E94F236B3E64B2E512CCD
:1055B000612C712CA30192010E945E342F5F3F4F3A
:1055C0004F4F5F4F822F90E09E838D839801281B61
:1055D000390BBC016F5F7F4FF12CE12C03E010E031
:1055E00041E250E082E893E00E94B90FEE24E39498
:1055F000F12C2D813E8141E250E061E070E082E8D3
:1056000093E00E94B90FADE0B0E0A50194010E94C3
:105610007D34A30192010E945E3449015A019FEF3B
:10562000891A990AA90AB90A23E0D29EF001112425
:105630003496FE83ED830EE010E0081919094091BD
:105640008C0350918D034A515109F12CE12C22E039
:1056500030E0BF0182E893E00E94B90F40918C03D3
:1056600050918D034C50510948195909EE24E39487
:10567000F12C840122E030E06D817E8182E893E0AC
:105680000E94B90F3B81313009F0ACC040918C03CE
:1056900050918D034A51510985E0D89EB0011124E3
:1056A000759567956C5F7F4F80910002680F711D43
:1056B00087FD7A95F12CE12C0EE010E021E030E03E
:1056C00082E893E00E94B90F40918C0350918D03C2
:1056D0004A51510922E030E061E070E082E893E055
:1056E0000E94B90F9981292F30E050E040E021500D
:1056F000310941095109ADE0B0E00E947D34A301B8
:1057000092010E945E3449015A01EFEF8E1A9E0AFF
:10571000AE0ABE0A40918C0350918D034C50510942
:1057200048195909EE24E394F12C8A0122E030E073
:1057300061E070E082E893E00E94240F40918C03C6
:1057400050918D034A51510960918A0370918B03E6
:1057500063507109F12CE12C0EE010E022E030E002
:1057600082E893E00E94B90F40918C0350918D0321
:105770004C5051094819590920918A0330918B03E3
:10578000B90163507109EE24E394F12C8A0182E897
:1057900093E00E94240F80918A0390918B031092D2
:1057A00093031092920321E030E03093950320930D
:1057B000940384559109CC2009F4DDC997FD019625
:1057C0009595879590938F0380938E0382E090E068
:1057D00090939103809390038DE393E00E942419AA
:1057E0000E94B919D09275030E942415809121025C
:1057F000853009F05FCC2FEF3FEF3A832983512C9E
:10580000EDE02E2E312CF6E04F2E8090220290906B
:1058100023020E9459198FED93E00E9424190E94DF
:10582000CB19A52C052C000CBB0820918A033091C4
:105830008B03652D8AE06802A0011124445F5F4F4D
:10584000EE24E394F12C0AE010E070E060E082E8DE
:1058500093E00E94B90FCC24C394D12C94E0A916F4
:10586000B10411F4D12CC12C760101E010E025E047
:1058700030E04AE350E068E770E082E893E00E949D
:10588000B90F23E030E04BE350E069E770E082E8D5
:1058900093E00E94B90F21E030E04CE350E06AE76A
:1058A00070E082E893E00E94B90F81E090E0A114DB
:1058B000B10411F490E080E09093950380939403F9
:1058C000909393038093920385E090E090938F03ED
:1058D00080938E03309291032092900387ED93E0A2
:1058E0000E9424190E94B9198DEC93E0811002C026
:1058F00083EC93E00E9424190E94B91981E090E0A2
:10590000E1E0AE16B10411F490E080E090939503CD
:1059100080939403909393038093920385E090E0A7
:1059200090938F0380938E0327E130E030939103AF
:10593000209390038BEB93E00E9424190E94B919E5
:1059400087EB93E0911002C083EB93E00E9424194F
:105950000E94B919798081E090E032E0A316B10489
:1059600011F490E080E090939503809394039093DA
:1059700093038093920385E090E090938F0380934C
:105980008E0381E290E090939103809390038BEAE1
:1059900093E00E9424190E94B91977FC2ACB209128
:1059A0008A0330918B032A523109F12CE12C08E053
:1059B00010E041E250E069E270E082E893E00E948A
:1059C000B90F872C072C000C9908972DE42D9E0207
:1059D000B0011124625D7F4FEE24E394F12C27E0A7
:1059E00030E041E250E082E893E00E94B90F2CE5FC
:1059F000622E23E0722E10E000E081E090E00815B6
:105A0000190511F490E080E090939503809394033E
:105A10009093930380939203F30161913F0182E895
:105A200093E00E94F30D0F5F1F4F0A30110529F715
:105A300081E090E0F3E0AF16B10411F490E080E073
:105A40009093950380939403909393038093920390
:105A500005E010E010938F0300938E032BE230E0FB
:105A600030939103209390038CE993E00E942419D2
:105A70000E94B919D0929503C0929403D0929303D7
:105A8000C092920310938F0300938E0385E390E0FE
:105A9000909391038093900380E993E00E942419EE
:105AA0000E94B9190E94241510E5115009F4A0CBE9
:105AB00083E00E94B408019709F09FCB82E00E9426
:105AC000B408019709F099CB84E00E94B4080197CB
:105AD00009F093CB64E670E080E090E00E947809E2
