:100000000C941F070C9447070C9447070C94470760
:100010000C9447070C9447070C9447070C94470728
:100020000C9447070C9447070C9447070C94470718
:100030000C9447070C9447070C9447070C94470708
:100040000C94A51A0C9447070C9447070C94470787
:100050000C9447070C9447070C9447070C944707E8
:100060000C94EF1A0C9447070000000023002600B0
:100070002900000102030405060708090A0B0C0DFC
:100080000E0F202122232425262728292A2B2C2D38
:100090002E2F88898A8B8C8D8E8F58595A5B5C5D88
:1000A0005E5F052A9B29912987291D291329092982
:1000B0009F2803290C2916291F29892992299C295F
:1000C000052A95288B28812817280F2A192A832A80
:1000D0008D2A062910291A2984298E299829022A6D
:1000E0000C2A1D2890280229152987299A290C2ACB
:1000F0001F2A09261C268E260127132786279827C4
:100100000B280000000000000000000FF000000FAE
:10011000F000000FF000000FF000071FF8E007FFED
:10012000FFE00FFFFFF00FFFFFF01FFFFFF81FFFC3
:10013000FFF81FFC3FF81FF81FF807F00FE003F06F
:100140000FC003F00FC007F00FE01FF81FF81FFCEF
:100150003FF81FFFFFF81FFFFFF80FFFFFF00FFF33
:10016000FFF007FFFFE0071FF8E0000FF000000FAF
:10017000F000000FF000000FF00000000000000091
:10018000000053657474696E67730000000000001E
:100190000000000000000000000000003FFC000321
:1001A000FFFFC007FFFFE03FFFFFFC7FFE7FFEFF7A
:1001B000FE7FFFFFFE7FFF7FFFFFFE7FFFFFFE1F33
:1001C000FE7FF81FFE7FF80FFE7FF007FE7FE00343
:1001D000FE7FC001FE7F8001FE7F8000FE7F000069
:1001E0007FFE00003FFC00001FF800001FF8000029
:1001F00007E0000007E0000003C0000001800000ED
:10020000000000000000000000000042616E642059
:100210005363616E00000000000000000000000059
:10022000000000000000FF800001FFE00003FFF07D
:100230000007E3F0000F80F8000F0078000F003C8B
:10024000000E003C000E003C000E003C000F003C85
:10025000000F0078000F80F80007C1F80007FFF8D2
:100260000003FFFC0000FFFE00003F1F0000000F26
:1002700080000007C0000003E0000001F000000063
:10028000E00000004000000000000000000000004E
:100290000000000000536561726368000000000008
:1002A000000000000000000000000000000000004E
:1002B000000000000000000000000000000000003E
:1002C000000000000000000000000000000000002E
:1002D000000000000000000000000000000000001E
:1002E000000000000000000000000000000000000E
:1002F00000000000FC000000003F000000000000C3
:1003000000000000FC000000003F000000000000B2
:1003100000000000FC000000003F000000000000A2
:1003200000000000FC000000003F00000000000092
:1003300000000000FC000000003F00000000000082
:100340000000000078000000001E00000000000017
:100350000000000078000000001E00000000000007
:100360000000000078000000001E000000000000F7
:100370000000000078000000001E000000000000E7
:100380000000000078000000001E000000000000D7
:100390000000000078000000001E000000000000C7
:1003A0000000000078000000001E0000FFFFFBF8C6
:1003B0000FDFFFFF7FFFFBFFFFDFFFFFFFFFFBFC08
:1003C0001FDFFFFF7FFFFBFFFFDFFFFFFFFFF9FCEA
:1003D0001FDFFFFF7FFFFBFFFFDFFFFFFFFFF9FED8
:1003E0003F9FFFFF7FFFFBFFFFDFFFFFFFFFF8FEE9
:1003F0003F9FFFFF7FFFFBFFFFDFFFFFFFFFF8FFD8
:100400007F1FFFFF7FFFFBFFFFDFFFFFFC03F87F86
:100410007F1F80007F01FBF00FDFC03FFC03F87FF0
:10042000FE1F80007F01FBF00FDFC03FFC03F83FA1
:10043000FE1F80007F01FBF00FDFC03FFC03F83F91
:10044000FC1F80007F01FBF00FDFC03FFC03F81FA3
:10045000FC1F80007F01FBF00FDFC03FFC03F81F93
:10046000F81F80007F01FBF00FDFC03FFFFFF80F98
:10047000F81FFFFF7FFFFBF00FDFFFFFFFFFF80F0D
:10048000F01FFFFF7FFFFBF00FDFFFFFFFFFF8070D
:10049000F01FFFFF7FFFFBF00FDFFFFFFFFFF807FD
:1004A000F01FFFFF7FFFFBF00FDFFFFFFFFFF80FE5
:1004B000F01FFFFF7FFFFBF00FDFFFFFFFFFF80FD5
:1004C000F81FFFFF7FFFFBF00FDFFFFFFDFE001FA8
:1004D000F800003F7F01FBF00FDFC03FFCFE001F74
:1004E000FC00003F7F01FBF00FDFC03FFC7F003FBF
:1004F000FC00003F7F01FBF00FDFC03FFC7F003FAF
:10050000FE00003F7F01FBF00FDFC03FFC3F807E1D
:100510007E00003F7F01FBF00FDFC03FFC3FC07E4D
:100520007E00003F7F01FBF00FDFC03FFC1FC0FEDD
:100530007F1FFFFF7FFFFBFFFFDFFFFFFC0FE0FEE2
:100540007F1FFFFF7FFFFBFFFFDFFFFFFC0FE1FCD3
:100550003F9FFFFF7FFFFBFFFFDFFFFFFC07F1FC7B
:100560003F9FFFFF7FFFFBFFFFDFFFFFFC07F3F86D
:100570001FDFFFFF7FFFFBFFFFDFFFFFFC03FBF839
:100580001FDFFFFF7FFFFBFFFFDFFFFF000000001B
:10059000000000000000000000000000000000005B
:1005A000000000000000000000000000000000004B
:1005B000000000000000000000000000000000003B
:1005C000000000000000000000000000000000002B
:1005D000000000000000000000000000000000001B
:1005E000000000000000000000000000000000000B
:1005F00000000000000000000000000000000000FB
:1006000000000000000000000000000000000000EA
:1006100000000000000000000000000000000000DA
:1006200000000000000000000000000000000000CA
:1006300000000000000000000000000000000000BA
:1006400000000000000000000000000000000000AA
:10065000000000000000000000000000000000009A
:10066000000000000000000000000000000000008A
:10067000000000000000000000000000000000007A
:10068000000000000000000000000000000000006A
:1006900000000000000000000000000000001E003C
:1006A0003F00738061987F847F8261826180618076
:1006B00061A20836082A042203220000000060C05C
:1006C00071C07BC07FD87FC46EC264C260C060C08E
:1006D00060C0080C0812041E031200000000000095
:1006E000339C4A527B9C4A524B920000000000000F
:1006F0001008300C7E7E300C1008000000001980BD
:10070000198019801FB81F88199019A019B8000006
:100710001008300C7E7E300C100800002724201CAE
:100720001915120E1013171A1E2125280D0B0A0871
:100730002B2C2E2F1114181B1F222629090C0F16E3
:100740001D232A2D000102030405060728292A2B50
:100750002C2D2E2F13201211211007220818060904
:100760001905230A1A040B1B03240C1C020D1D255A
:10077000010E1E000F1F261415271617E916D51691
:10078000C116AD169916851671165D166516781682
:100790008B169E16B116C416D716EA1649163516CC
:1007A00021160D16FD161117251739176C16801610
:1007B0009416A816BC16D016E416F8161A163F168C
:1007C00064168916AE16D316F8161D17F2141715EF
:1007D0003C1561158615AB15D015F5154200410085
:1007E0005072657373206D6F646520666F720A5274
:1007F0005353492063616C6962726174696F6E0062
:100800005072657373204D4F444520746F2073619F
:1008100076652E004D61783A20004D696E3A2000D1
:10082000416C6C20646F6E652100342F340A536371
:10083000616E6E696E6720666F72206869676865B1
:1008400073740A525353492E2E2E005072657373DF
:10085000204D4F4445207768656E2072656164794C
:100860002E00332F340A5475726E206F6E20796F0C
:100870007572205654582E00322F340A5363616E1D
:100880006E696E6720666F72206C6F776573740A8D
:10089000525353492E2E2E005072657373204D4FC4
:1008A0004445207768656E2072656164792E005238
:1008B000656D6F766520525820616E74656E6E614D
:1008C000732E00312F340A5475726E206F666620C5
:1008D000616C6C20565458732E0000000000003EDE
:1008E0005B4F5B3E3E6B4F6B3E1C3E7C3E1C183CA0
:1008F0007E3C181C577D571C1C5E7F5E1C00183CFC
:100900001800FFE7C3E7FF0018241800FFE7DBE744
:10091000FF30483A060E2629792926407F0505072B
:10092000407F05253F5A3CE73C5A7F3E1C1C080887
:100930001C1C3E7F14227F22145F5F005F5F06094C
:100940007F017F006689956A606060606094A2FFA5
:10095000A29408047E040810207E201008082A1C97
:1009600008081C2A08081E101010100C1E0C1E0C63
:1009700030383E3830060E3E0E0600000000000003
:10098000005F00000007000700147F147F14242A72
:100990007F2A122313086462364956205000080744
:1009A0000300001C2241000041221C002A1C7F1C65
:1009B0002A08083E08080080703000080808080867
:1009C000000060600020100804023E5149453E00CE
:1009D000427F400072494949462141494D3318142C
:1009E000127F1027454545393C4A4949314121117B
:1009F00009073649494936464949291E000014006D
:100A0000000040340000000814224114141414148F
:100A1000004122140802015909063E415D594E7CED
:100A20001211127C7F494949363E414141227F41A2
:100A300041413E7F494949417F090909013E414100
:100A400051737F0808087F00417F41002040413FEB
:100A5000017F081422417F404040407F021C027FFA
:100A60007F0408107F3E4141413E7F090909063E4F
:100A70004151215E7F09192946264949493203011E
:100A80007F01033F4040403F1F2040201F3F403830
:100A9000403F631408146303047804036159494D0B
:100AA00043007F4141410204081020004141417F41
:100AB00004020102044040404040000307080020B7
:100AC000545478407F2844443838444444283844B7
:100AD00044287F385454541800087E090218A4A4EE
:100AE0009C787F0804047800447D40002040403D0D
:100AF000007F1028440000417F40007C0478047887
:100B00007C080404783844444438FC182424181819
:100B1000242418FC7C080404084854545424040475
:100B20003F44243C4040207C1C2040201C3C403062
:100B3000403C44281028444C9090907C4464544C91
:100B400044000836410000007700000041360800EC
:100B500002010204023C2623263C1EA1A161123A96
:100B60004040207A385454555921555579412254E2
:100B7000547842215554784020545579400C1E52E7
:100B8000721239555555593954545459395554548C
:100B9000580000457C410002457D420001457C40F3
:100BA0007D1211127DF0282528F07C545545002037
:100BB00054547C547C0A097F4932494949323A44A9
:100BC00044443A324A4848303A4141217A3A424014
:100BD0002078009DA0A07D3D4242423D3D404040E6
:100BE0003D3C24FF2424487E4943662B2FFC2F2BB9
:100BF000FF0929F620C0887E09032054547941005A
:100C000000447D413048484A32384040227A007AD8
:100C10000A0A727D0D19317D2629292F28262929B6
:100C2000292630484D4020380808080808080808D8
:100C3000382F10C8ACBA2F102834FA00007B0000FF
:100C400008142A142222142A14085500550055AA03
:100C500055AA55AAFF55FF55FF000000FF001010D0
:100C600010FF00141414FF001010FF00FF1010F00C
:100C700010F0141414FC001414F700FF0000FF001F
:100C8000FF1414F404FC141417101F10101F101F6D
:100C90001414141F00101010F0000000001F10109A
:100CA00010101F10101010F010000000FF10101096
:100CB000101010101010FF10000000FF140000FFB3
:100CC00000FF00001F10170000FC04F4141417109C
:100CD000171414F404F40000FF00F714141414148F
:100CE0001414F700F7141414171410101F101F1405
:100CF0001414F4141010F010F000001F101F000066
:100D0000001F14000000FC140000F010F01010FF91
:100D100010FF141414FF141010101F00000000F036
:100D200010FFFFFFFFFFF0F0F0F0F0FFFFFF00000B
:100D3000000000FFFF0F0F0F0F0F3844443844FC32
:100D40004A4A4A347E02020606027E027E02635549
:100D50004941633844443C04407E201E2006027E04
:100D6000020299A5E7A5991C2A492A1C4C72017216
:100D70004C304A4D4D303048784830BC625A463D80
:100D80003E494949007E0101017E2A2A2A2A2A4435
:100D9000445F444440514A444040444A514000006A
:100DA000FF0103E080FF000008086B6B0836123675
:100DB0002436060F090F0600001818000000101056
:100DC000003040FF0101001F01011E00191D171214
:100DD000003C3C3C3C000000000000000008000219
:100DE00001000003040700000000000000000900EB
:100DF0000000000100005A00DC00005A00DC000086
:100E0000000000240027002A0001020408102040EE
:100E100080010204081020010204081020000000D4
:100E200000250028002B0004040404040404040228
:100E3000020202020203030303030300A726112494
:100E40001FBECFEFD8E0DEBFCDBF27E0ACE9B5E0F5
:100E500001C01D92AC38B207E1F715E0A0E0B1E0A7
:100E6000ECEDFFE402C005900D92AC39B107D9F763
:100E700017E0CFE1D7E004C02197FE010E94672769
:100E8000CE31D107C9F70E949E230C94EC270C9415
:100E90000000FC0184A1811103C08CE996E0089553
:100EA0008CEB96E00895FC0185A1882331F0813018
:100EB00019F42CED36E003C008952CEF36E0C9019B
:100EC0000895DC015E968D919C915F97FC01EE0F79
:100ED000FF1FEE0FFF1FEA0FFB1F29E437E03587E6
:100EE00024872CEC37E03787268723E537E0318BE2
:100EF000208BFC013196EE0FFF1FEE0FFF1FEA0F54
:100F0000FB1F27EA37E03787268702965F969C9378
:100F10008E935E9781E09091FE06911101C080E072
:100F200094968C93949781E09091FF06911101C063
:100F300080E095968C939597E091FC06813021F0A6
:100F4000F0E0E45EF84FE4919696EC930895DC01AE
:100F500095968C9195979696EC91969781110DC0E8
:100F600081E095968C939597F0E0E45BF84FE491DF
:100F70009696EC938093FF060BC095961C929597DE
:100F8000F0E0E45EF84FE4919696EC931092FF0641
:100F900081E0809397060895FC0194A121E09227B7
:100FA00094A39093FE06209397060895DC01ED919B
:100FB000FC910190F081E02D099421E0FC01218752
:100FC0000895FC01411131C06130A1F018F0623088
:100FD000F1F00895848D958D0197958F848F97FFFB
:100FE00005C0828D938D0197958F848F81E08093CA
:100FF00093060895848D958D0196958F848F228D0B
:10100000338D8217930794F3158E148EEFCF248DB2
:10101000358D46E0429FC001439F900D1124E80F9B
:10102000F91F0480F581E02D09940895FC01158EC7
:10103000148E85E992E09383828385E192E0978321
:10104000868383EB9AE0958384838BE092E091879B
:1010500080878BE891E09587848780EB9AE093877F
:10106000828782E891E09787868782E091E0938B80
:10107000828B8DEA9AE0918B808B83E090E0938F56
:10108000828F0895FC011282209103062383089524
:10109000462FA0919406B0919506109749F0ED91D6
:1010A000FC9111970284F385E02D682FCD010994FE
:1010B00008950895089508950895089508950F9343
:1010C0001F93CF93DF93182F062FC4E5D6E0E99145
:1010D000F991309719F0602F812F099586E0CC3572
:1010E000D807A9F7DF91CF911F910F910895EF9243
:1010F000FF920F931F93CF93DF93EC010E94B510E3
:10110000E0911507F09116070284F385E02D01E0C8
:1011100010E023E330E047E250E062E070E085E178
:1011200097E00995E0911507F09116070284F38581
:10113000E02D23E330E04DE250E062E070E085E135
:1011400097E00995E0911507F09116070084F18565
:10115000E02D23E030E049E250E060E070E085E11E
:1011600097E00995E0911507F09116070084F18545
:10117000E02D23E030E049E250E066E370E085E1F5
:1011800097E0099541E069E270E082E090E00E941A
:101190004C1C42E069E270E084E390E00E944C1C49
:1011A00044E06BE270E084E390E00E944C1C48E075
:1011B0006BE270E082E090E00E944C1CE12CF12C8C
:1011C00002E010E021E030E0A7016BE370E085E190
:1011D00097E00E94EE1883E0E80EF11C82E4E81626
:1011E000F10471F7CE010E943613CE010E9419134B
:1011F000CE010E94F712CE010E949C1281E08093E2
:101200009606DF91CF911F910F91FF90EF90089577
:10121000FF920F931F93CF93DF930E94B51001E0CD
:1012200010E028E330E040E050E060E070E085E16D
:1012300097E00E94EE1828E330E040E050E06FE7CE
:1012400070E085E197E00E94EE1820E830E047E387
:1012500050E060E070E085E197E00E94620E2FE4CC
:1012600030E04FE350E068E170E085E197E00E94F4
:10127000620E29E030E047E350E068E170E085E18C
:1012800097E00E94EE1829E030E047E350E067E67F
:1012900070E085E197E00E94EE18C5E1D7E0FF24F9
:1012A000F394FC8A81E090E09B8B8A8B998B888BEE
:1012B0001D861C8609E310E01F870E87ECE4F7E02B
:1012C000E491F0E0EE0FFF1FE458F84F8591949100
:1012D0000E94262089E690E09D878C871F870E87D5
:1012E000EBE7F7E0E491F0E0EE0FFF1FE458F84F72
:1012F000859194910E942620F0929606DF91CF91DD
:101300001F910F91FF9008950F931F93CF93DF9339
:10131000EC018C010E5F1F4FC8010E94F31188235E
:1013200049F0C8010E94DE11898591E089278987EB
:1013300090939306DF91CF911F910F910895EF92B3
:10134000FF920F931F93CF93DF93EC0127E3E22EDD
:101350000EE720E041E060E304960E94632001E094
:1013600010E020E830E047E350E060E070E085E125
:1013700097E00E94620E25E030E04CE450E069E323
:1013800070E08AE190E00E94A2108A812CE4829FA2
:10139000C001112460E370E00E943F276F5F262F99
:1013A00030E0EE24E394F12C05E010E049E350E056
:1013B0006AE170E085E197E00E94931781E08093F5
:1013C0009606DF91CF911F910F91FF90EF900895B6
:1013D000CF93C82F60E08CE00E94401D6C2F8AE004
:1013E0000E94401D61E08CE00E94401D60E08CE0A6
:1013F000CF910C94401DCF93C82F8091940690916B
:101400009506009739F0DC01ED91FC910084F1859F
:10141000E02D09958091440780934307C0934407CA
:10142000C33009F445C0B0F4C13019F1C23009F03D
:1014300073C084E3EFECF5E0DF011D928A95E9F7D4
:1014400088E295E09093D0058093CF0580E3E3EDAB
:10145000F5E054C0C53009F456C008F43FC0C630AA
:1014600009F05AC01092D1051092D20588E495E097
:101470004CC0EFECF5E087E2DF011D928A95E9F7B9
:1014800088E095E09093D0058093CF05C093D20576
:101490001092D6051092D7051092D8051092D90552
:1014A000C093DA05F093EC05E093EB05CF0136C06D
:1014B0008AE0EFECF5E0DF011D928A95E9F788E11B
:1014C00095E09093D0058093CF0568EB7BE081EDAC
:1014D00095E00E9485121092D8051BC08EE1EFECBA
:1014E000F5E0DF011D928A95E9F788E395E0909396
:1014F000D0058093CF058CE1E1EDF5E0DF011D9291
:101500008A95E9F706C088E595E09093D005809329
:10151000CF058FEC95E002C080E090E090939506B7
:1015200080939406009799F0DC01ED91FC91048082
:10153000F581E02D09958091940690919506DC0146
:10154000ED91FC910190F081E02DCF910994CF9124
:101550000895809143070C94FB0985E00C94FB09E6
:1015600082E00C94FB0981E00C94FB099091440704
:10157000943039F0823029F4623019F484E00C940C
:10158000FB090895882319F02EE04FE002C02FE0F8
:101590004EE050E0FA01E95DF14F9491FA01E75F06
:1015A000F14F4491E22FF0E0E75FF14F2491E92FF2
:1015B000F0E0EE0FFF1FE35EF14FA591B491EC91C7
:1015C0004E2BE22FE095E423EC938093620708957D
:1015D000CF92DF92EF92FF92CF93DF93D82FE82F35
:1015E000F0E0EE0FFF1FEE55FF4FC590D490E12CB9
:1015F000F12C60E08BE00E94401D81E00E94E80930
:1016000080E00E94E80980E00E94E80980E00E94F2
:10161000E80981E00E94E809C4E18C2D81700E94F4
:10162000E809F694E794D794C794C150B1F761E004
:101630008BE00E94401D60E08CE00E94401D60E055
:101640008AE00E94401D83E597E00E94DE11D0935E
:101650000306DF91CF91FF90EF90DF90CF90089538
:10166000CF93DC0192968C919297623059F441307D
:1016700049F4842792968C939297811197C0409356
:10168000920697C0882309F444C0613061F1B0F03C
:10169000623009F08EC09096ED91FC919197EE0F1B
:1016A000FF1FEE0FFF1FEA0FFB1F0684F785E02DDB
:1016B0005C968D919C915D97CF91099490968D91B8
:1016C0009C919197019791969C938E93909797FFF9
:1016D00070C05E968D919C915F97019791969C93B7
:1016E0008E93909766C090968D919C91919701965C
:1016F00091969C938E9390975E962D913C915F97D7
:10170000821793070CF455C091961C921E929097E5
:1017100050C094968C919497811114C0411149C086
:10172000623009F446C081E012968C9312971496A9
:101730008C931497662311F08FEF01C081E013960C
:101740008C9337C04D7FA9F596968C919697611131
:1017500002C08F5F03C0613021F4815096968C9354
:10176000969796968C9196978F3F29F48FE296964E
:101770008C93969705C0803318F096961C92969796
:1017800095968C9195979696EC91811105C0F0E015
:10179000E45BF84FC49101C0CE2F8C2F0E94E80A61
:1017A000C093FC0681E08093970603C080E1939686
:1017B0008C93CF9108950F931F93CF93DF93FC01E8
:1017C00024A1211166C0EC018581882309F438C069
:1017D000E6818EA19E2F981BDE01A90FB11D2091DD
:1017E000910617962C93EF5FEE83943030F0FE0154
:1017F000379600E020E090E009C0E033C0F7F0E069
:10180000E45BF84F84910E94E80A43C031912317AA
:1018100010F4092F232F9F5F9430C1F7080F0EA3F8
:1018200010E0045B184FF80184910E94E80AF80167
:1018300004910093FC0681E0809397061D8229C0E5
:101840008281882331F1948186A191110DC09091FC
:101850009106903548F0128291E095838683178235
:1018600010861186128615C09B81890F8F3F11F457
:101870008FE202C0803310F48EA301C01EA2EEA13D
:10188000F0E0E45BF84F84910E94E80A8C818111BA
:101890001C8281E080939306DF91CF911F910F917D
:1018A0000895CF93DF93EC0183E597E00E94F31155
:1018B0008823F9F04A8150E0FE01E40FF51F809182
:1018C00091062091900630E0280F311D359527951F
:1018D0002483CA01019660E370E00E943F278A8357
:1018E000FC01E45BF84F84910E94E80A81E0809358
:1018F0009306DF91CF910895FC0183810C94E80A4F
:10190000FC01AFE9B5E090E08491882351F09F019C
:101910002F5F3F4F903329F0E491ED939F5FF901E2
:10192000F3CFE92FF0E0E156FA4F10828FE995E00E
:101930000895EF92FF920F931F93CF93DF93FC01D3
:10194000248D358D46E0429FE001439FD00D112448
:10195000C80FD91F8A819B810E94800CFC010190D5
:101960000020E9F731979F01281B390B82E0809313
:10197000290781E090E090932807809327079093B0
:101980002607809325074AEF4203F0011124FF96B2
:10199000F0932207E09321078EE290E090932407D2
:1019A000809323078A819B810E94800C0E944A1C9D
:1019B0008E819F81892BC9F020E230E040E250E027
:1019C00067E070E08FE290E00E94A2104E815F819C
:1019D000EE24E394F12C00E210E020E230E067E036
:1019E00070E08FE290E00E940F23DF91CF911F9172
:1019F0000F91FF90EF900895CF93DF93EC0122E1D8
:101A000030E040E850E06EE270E080E090E00E945C
:101A1000A210CE010E94990C81E080939606DF917E
:101A2000CF910895CF93DF9300D0CDB7DEB78983F0
:101A30009A830E94B51089819A810E94990C41E293
:101A400050E065E270E081E290E00E9407214DE104
:101A500050E069E170E08DE190E00E94072181E0B3
:101A6000809396060F900F90DF91CF910895E82F05
:101A7000F0E0EE58FF4FE491ACE9B5E08E2F86958B
:101A8000869586958F5B8C93E770EF5C1196EC934F
:101A9000119712961C921297CD010895EF92FF9222
:101AA0000F931F93CF93DF93EC010E94B5108985AC
:101AB000882381F0EE24E394F12C00E410E020E888
:101AC00030E04CE952E060E070E080E090E00E949D
:101AD0000F2339C081E090E0909328078093270777
:101AE000909326078093250786E0809329078EE14F
:101AF00090E0909322078093210782E090E09093FA
:101B0000240780932307809103060E94370D0E94CB
:101B10004A1C82E08093290786E290E09093220796
:101B20008093210780E390E090932407809323071C
:101B3000E0910306F0E0EE0FFF1FE458F84F8591A7
:101B400094910E94262081E080939606DF91CF91A8
:101B50001F910F91FF90EF9008958F929F92AF92F7
:101B6000BF92CF92DF92EF92FF920F931F93CF938A
:101B7000DF93082FEB0150E0FA01E652F24F849117
:101B8000FA01E75FF14FF490FA01E95DF14F14912A
:101B90001123A1F081110E94171DE12FF0E0EE0F3B
:101BA000FF1FE859FF4FA591B491EC91EF2131E06F
:101BB00020E009F430E0832F922F02C080E090E013
:101BC00021E08227282F2170F22E182F8C811817E0
:101BD00031F00E94991A688379838A839B83FC82FF
:101BE0008D811817B9F10E94991A88809980AA806E
:101BF000BB80DC01CB0188199909AA09BB0984368D
:101C00009105A105B10530F1FD82CE80DF80E88429
:101C1000F9840E94991A6E837F83888799876093DD
:101C200098067093990680939A0690939B062D814F
:101C3000211110C0DC01CB018C199D09AE09BF092F
:101C4000843F21E09207A105B10540F560E0802FB7
:101C50000E945F088D81882341F10E94991ACE80ED
:101C6000DF80E884F984DC01CB018C199D09AE0981
:101C7000BF09803D9740A105B105B8F062E0802F13
:101C8000DF91CF911F910F91FF90EF90DF90CF9058
:101C9000BF90AF909F908F900C945F08803D9740CD
:101CA000A105B105B8F661E0D2CFDF91CF911F91C8
:101CB0000F91FF90EF90DF90CF90BF90AF909F90EB
:101CC0008F9008950F931F93CF93DF93DC01FB0157
:101CD00055968C915597823081F0833019F181307F
:101CE00051F514968D919C911597BC01641B750B51
:101CF000AB0141505109BF0181C014966D917C9197
:101D00001597CB018E1B9F0BFC0116968D919C9114
:101D10001797BC01641B750BAB0141505109E21BC5
:101D2000F30B09C016966D917C9117976E1B7F0B74
:101D3000621B730B63C057FD1CC116968D919C915D
:101D40001797481759070CF014C1F7FF04C02E0F5E
:101D50003F1FE0E0F0E014968D919C911597BF0134
:101D6000620F731F861797071CF49C012E1B3F0BF5
:101D7000121613060CF0FDC0CA0157FD079663E06A
:101D8000959587956A95E1F79695982F8827979569
:101D90008795E80FF91FE050FF4F4770552781E006
:101DA00090E001C0880F4A95EAF7482F01301105ED
:101DB00041F088F00230110509F0DBC02E0F3F1F03
:101DC00015C02E0F3F1FE217F30709F4D2C0808120
:101DD000842B8193F8CF80952E0F3F1FE217F307D6
:101DE00009F4C7C0908198239193F8CFE217F307C5
:101DF00009F4BFC0808184278193F8CF57FDB9C013
:101E000014968D919C911597481759070CF0B1C005
:101E100077FF04C0260F371F60E070E016968D91A3
:101E20009C911797FB01E20FF31F8E179F071CF47D
:101E30009C01261B370B121613060CF09AC0A22F1A
:101E4000862F86958695869590E8899F400D511D31
:101E50001124FA01E050FF4F6770A9F198E0961B3A
:101E6000492F50E0EA01C459DA4F8881291790F4CC
:101E7000421B51092FEF30E002C0359527954A9556
:101E8000E2F782230130110541F068F002301105BC
:101E900089F06FC00130110519F42081822B0CC02C
:101EA0000130110520F480952081822305C0023085
:101EB000110531F4208182278083A91708F459C0C5
:101EC000A91BE058FF4FA83048F10230110559F422
:101ED000EF018A2F988190959883C058DF4F8850E2
:101EE0008830C0F731C081E00130110509F080E091
:101EF0008195EF019A2F8883C058DF4F9850983012
:101F0000D0F788EF8A0F86958695869560E8869F3C
:101F1000E00DF11D1124E058FF4FA770AA2349F1ED
:101F2000B0E0AC59BA4F8C910130110529F038F06E
:101F300002301105D9F01DC09081892B03C0809516
:101F400090818923808315C088EF8A0F86958695B6
:101F5000869570E8879FE00DF11D1124E058FF4F32
:101F6000A77039F0B0E0AC59BA4F8C9190818927B5
:101F7000E9CFDF91CF911F910F910895FC0177FD7B
:101F80009AC080859185681779070CF094C057FD39
:101F900092C082859385481759070CF08CC08589BB
:101FA000823009F07CC084819581DC01A61BB70BCF
:101FB000BD016150710986819781FC01E41BF50B1D
:101FC000AF01415051090AC0813041F484819581AB
:101FD000841B950BAB01BC016150710921303105A7
:101FE00029F008F122303105E1F10895FA0157FD99
:101FF0003796A3E0F595E795AA95E1F7F695FE2FBC
:10200000EE27F795E7956E0F7F1FFB01E050FF4F1E
:102010004770552781E090E001C0880F4A95EAF7A4
:102020009081892B3AC0FA0157FD379623E0F59548
:10203000E7952A95E1F7F695FE2FEE27F795E795B8
:102040006E0F7F1FFB01E050FF4F4770552781E067
:1020500090E001C0880F4A95EAF780959081892326
:102060001CC0FA0157FD379683E0F595E7958A95F0
:10207000E1F7F695FE2FEE27F795E7956E0F7F1F98
:10208000FB01E050FF4F4770552781E090E001C011
:10209000880F4A95EAF790818927808308958330D5
:1020A00009F092CF86819781861B970BBA01AC010C
:1020B0004150510993CF089581E08093930608958C
:1020C000FC011282089508950895089508956230DC
:1020D00019F486E00C94FB090895623091F54111E2
:1020E00030C0FC0182818230A9F0843011F181116D
:1020F00025C081E08283138280E00E94E80A8FEF8E
:102100009FEF9093010780930007909306078093B9
:10211000050714C083E08283138280E00E94E80AEE
:1021200010920307109202071092080710920707F7
:1021300005C00E94AC1D84E00E94FB0981E08093F1
:1021400093060895EF92FF920F931F93E12CF12CC9
:1021500089019A01AB01BC0185E197E00E949317C8
:102160001F910F91FF90EF90089580E094E0E0E0E0
:10217000F1E0DF019C011D9221503040E1F708950C
:10218000EF92FF920F931F93CF93DF93EC010E9486
:10219000B5108A81823009F4C3C098F4882309F409
:1021A00091C0813009F0EBC080932907109222077B
:1021B00010922107109224071092230788E798E0D5
:1021C000DAC0833009F4CAC0843009F0D8C081E095
:1021D000809329071092220710922107109224075A
:1021E0001092230780E298E00E94800C0E944A1C13
:1021F0001092220710922107CEE0D0E0D09324075E
:10220000C09323078AE198E00E94800C0E944A1C38
:102210008EE1E82EF12CF0922207E0922107D09374
:102220002407C093230780910007909101070E9423
:10223000262008E410E01093220700932107D09392
:102240002407C093230780910007909101070E9403
:1022500026201092220710922107C6E1D0E0D093E9
:102260002407C093230784E198E00E94800C0E9419
:102270004A1CF0922207E0922107D0932407C093D2
:10228000230780910207909103070E942620109354
:10229000220700932107D0932407C093230780913E
:1022A0000707909108070E9426201092220710929B
:1022B000210788E390E0909324078093230780E030
:1022C00098E059C081E0809329071092220710926C
:1022D0002107109224071092230783EC98E00E94B4
:1022E000800C0E944A1C109222071092210780E164
:1022F00090E090932407809323078FEA98E00E9450
:10230000800C0E944A1C109222071092210788E339
:1023100090E0909324078093230788E998E02BC0EE
:1023200081E08093290710922207109221071092D2
:1023300024071092230782E698E00E94800C0E94F6
:102340004A1C109222071092210788E390E0909394
:102350002407809323078BE498E00DC081E08093ED
:102360002907109222071092210710922407109239
:1023700023078AE298E00E94800C0E944A1C81E0B8
:1023800080939606DF91CF911F910F91FF90EF9070
:102390000895CF930E94B510E5E1F7E0C1E0C48B4A
:1023A000158614861786168680EE97E00E94800CAC
:1023B0000E944A1CC0939606CF910895CF93DF9355
:1023C000EC010E94991A2C813D81DC01CB01820F26
:1023D000931FA11DB11D88839983AA83BB831E828D
:1023E000DF91CF910895CF92DF92EF92FF921F93EA
:1023F000CF93DF93FC01168111110FC0EC010E94F5
:10240000991AC880D980EA80FB806C157D058E05FD
:102410009F0518F081E08E8311E0812FDF91CF912D
:102420001F91FF90EF90DF90CF900895CF93DF93AF
:10243000EC0183E597E00E94F311882309F462C060
:102440008A81813019F0833001F13DC080918E0680
:1024500090918F0620910007309101078217930712
:1024600020F4909301078093000780918C0690914F
:102470008D0620910507309106078217930718F5FE
:1024800090930607809305071EC080918E06909159
:102490008F0620910207309103072817390720F48F
:1024A000909303078093020780918C0690918D068C
:1024B00020910707309108072817390720F49093D7
:1024C0000807809307078091030690E0019660E378
:1024D00070E00E943F270E94E80A80910306811164
:1024E00011C08B818F5F8B83833061F48A8181304F
:1024F00021F0833021F484E001C082E08A8381E00E
:1025000080939306DF91CF910895CF93DF93EC01F1
:102510007D836C830E94991A2C813D81DC01CB0163
:10252000820F931FA11DB11D88839983AA83BB834A
:102530001E82DF91CF910895EF920F931F93CF9357
:10254000DF938DE1E82E05E420E04DE368E184E7C8
:1025500096E00E94632022E24DE368E18CE596E07C
:102560000E946320CDE3D0E001E010E021E030E004
:102570004FE150E0BE0185E197E00E94620E239694
:10258000C538D10589F781E08093290782E090E082
:102590009093280780932707909326078093250719
:1025A000CFE3D0E0D0932207C09321078BE090E0E7
:1025B00090932407809323078EED97E00E94800C70
:1025C0000E944A1CD0932207C09321078DE290E01D
:1025D00090932407809323078CED97E00E94800C52
:1025E000DF91CF911F910F91EF900C944A1CEF92C5
:1025F000FF920F931F93FC0186A1F3E38F9FC0010D
:10260000112460E370E00E943F279B013327EE24F2
:10261000E394F12C03E010E049E250E062E070E066
:1026200085E197E00E9493171F910F91FF90EF9023
:102630000895E5E1F7E082E0848B81E090E0938B00
:10264000828B918B808B86E090E09587848782E3F4
:1026500090E097878687E0910306F0E0EE0FFF1F7A
:10266000E458F84F859194910C942620E5E1F7E029
:1026700085E0848B81E090E0938B828B918B808BC3
:102680001586148617861686809103060E94370DDC
:102690000C944A1C9F92AF92BF92CF92DF92EF921E
:1026A000FF920F931F93CF93DF93EC0123E230E06F
:1026B0004BE350E060E070E080E090E00E94A21008
:1026C0002EE030E04BE350E062E370E080E090E029
:1026D0000E94A21023E030E043E350E069E270E0A2
:1026E00082E090E00E94A210CE010E943613CE013B
:1026F0000E941913CE010E94F712CE010E949C1273
:102700008AA181110FC081E080939606DF91CF915D
:102710001F910F91FF90EF90DF90CF90BF90AF90FF
:102720009F9008958BA1882331F0845087FD02C0CB
:102730008BA301C01BA26BA1062E000C770B605966
:102740007F4FE12CF12C00E410E020E130E040E08C
:1027500050E085E197E00E9493176BA1062E000CD4
:10276000770B61597F4F01E010E020E430E040E05A
:1027700050E085E197E00E94EE188E8D98EF899FDA
:10278000802D1124815E912CA82EB12CC92CD12C26
:102790008E8D9F8DC816D9060CF0B5CF88A199A152
:1027A0008C159D05C9F4A60164E0440F551F6A9578
:1027B000E1F74A0D5B1D6BA1062E000C770B6059EB
:1027C0007F4FEE24E394F12C00E110E020E130E0B3
:1027D00085E197E00E949317EE24E394F12C88A101
:1027E00099A18C159D0511F4E12CF12CF601EE0F49
:1027F000FF1FEE0FFF1FEC0FFD1F0484F585E02D7A
:102800008C8D9D8D0995B60124E0660F771F2A9562
:10281000E1F76A0D7B1DEBA10E2E000CFF0B00E112
:1028200010E020E130E0AC01CF0180599F4F0E94C1
:102830000F239394ABCF3FB7F894809150069091BB
:102840005106A0915206B091530626B5A89B05C02B
:102850002F3F19F00196A11DB11D3FBFBA2FA92F1F
:10286000982F8827820F911DA11DB11DBC01CD019C
:1028700042E0660F771F881F991F4A95D1F7089588
:1028800085ED8093BC008091BC0084FDFCCF10924C
:10289000D306089540912606262F30E0240F311DDF
:1028A00021323105DCF42091D3062430C9F4FC0137
:1028B00080E090E0861758F4309126062191DC01E3
:1028C000AC5FB94FA30FB11D2C930196F3CF80914C
:1028D0002606680F6093260680E0089581E008953B
:1028E00082E00895089581E090E03091AC06209157
:1028F000AB06321710F480E090E091958195910934
:1029000008958091AC069091AB06891730F48F5FE3
:102910008093AC0680E090E008958FEF9FEF0895DC
:102920008091AB0690E02091AC06821B910908953E
:10293000CF92DF92EF92FF920F931F93CF93DF938B
:102940007C01262F972F8A018091D406882391F04D
:10295000C62FD72F6E01C40ED51ECC15DD0571F024
:102960006991D701ED91FC910190F081E02DC701B3
:102970000995F3CF642F822F0E944A14C801DF917A
:10298000CF911F910F91FF90EF90DF90CF9008951E
:10299000CF93DF931F92CDB7DEB769832091D40622
:1029A0002223D1F02091F706203240F021E030E0E0
:1029B000FC013383228380E090E015C08091D5062E
:1029C000E82FF0E0EA52F94F998190838F5F80936E
:1029D000D5068093F70605C061E0CE0101960E94FE
:1029E0004A1481E090E00F90DF91CF91089508950F
:1029F0002F923F924F925F926F927F928F929F920F
:102A0000AF92BF92CF92DF92EF92FF920F931F93FC
:102A1000CF93DF93CDB7DEB76B970FB6F894DEBFD9
:102A20000FBECDBF4C015A8349831F830E83FD82A5
:102A3000EC82CB82DC0158964D915C9159974115FF
:102A4000510509F0A5C018968D919C9119976817AA
:102A500079070CF05AC11A968D919C911B97E981C8
:102A6000FA81E817F9070CF050C1D12CCB013B815A
:102A7000F6E03F9F800D911D1124181619060CF0E9
:102A800044C1C60133E0880F991F3A95E1F74981A7
:102A90005A81840F951F181619060CF036C15796E7
:102AA0008C91811103C0203B08F02F5F55E0259FDA
:102AB000900111247E876D875B01212CC901861B43
:102AC000970B99878887A981BA811896BB87AA87AF
:102AD000B5E02B1641F0E885F985EA0DFB1DE652BD
:102AE000F74F349001C0312C69807A80230130FE89
:102AF00012C0D401ED91FC91BB81B13031F404805E
:102B0000F581E02D2E813F8118C00684F785E02DE8
:102B1000EE80FF801CC0EC81FD812E813F81E21799
:102B2000F307E1F0D401ED91FC91BB81B13051F498
:102B30000480F581E02D2C813D81A301B501C40104
:102B400009950CC00684F785E02DEC80FD80860198
:102B50009601A2016D857E85C40109953694EFEF3B
:102B60006E1A7E0A4C0C5D1C2A853B856216730624
:102B700009F0BDCF23943FEFA31AB30A4D855E85BC
:102B80004C0D5D1D5E874D8756E02512A1CFBDC05F
:102B9000FA0134963491329785919491231BA7E0E2
:102BA0002A9F800D911D1124FA01259134913A8BB1
:102BB000298BFC0125903490FC01329634913887A2
:102BC000319644914C873196E491FC013596A4915D
:102BD000319684915B81523050F06A2E0A2E000C9F
:102BE0007708E82F082E000CFF0BFB87EA87FB8194
:102BF000CF2ED12C6C9C90016D9C300D7C9C300DA7
:102C00001124A901460F571F588B4F871C82A12CF6
:102C1000EA2FAA0FFF0B3B016E0E7F1E5885650F32
:102C2000711DDB01AE0FBF1FBF8BAE8BE981FA8137
:102C3000E80FF11D87FDFA95F98FE88F9C85A9169D
:102C400008F063C08A2D90E04A855B85480F591FC4
:102C50004C9D90014D9D300D5C9D300D1124A9813E
:102C6000BA81A20FB31FBE87AD877B8E6A8E4F8459
:102C70005888BC81B619BB8BE88DF98DE80FF91F18
:102C8000FD8BEC8B8B89FA8D8F0F2A8D3B8D4E89B6
:102C90005F892417350799F1877041F4C1010196C6
:102CA000E989FA89E20DF31DB4901C01B7FE1EC03C
:102CB000D401ED91FC91BB81B13061F40480F581C8
:102CC000E02D2E813F814C895D896A8D7B8DC40109
:102CD00009950CC00684F785E02DEE80FF80860103
:102CE00096014D855E85B201C4010995BB0CEA8D44
:102CF000FB8D3196FB8FEA8F4C0C5D1CC3CF5C8142
:102D00008885580F5C83A39499CF6B960FB6F8947F
:102D1000DEBF0FBECDBFDF91CF911F910F91FF900E
:102D2000EF90DF90CF90BF90AF909F908F907F906B
:102D30006F905F904F903F902F900895AF92BF9209
:102D4000CF92EF92FF920F931F93CF93DF93EC01FB
:102D5000262F888D998D009709F042C06A3069F45A
:102D60002C898E859F8538E0239F800D911D11242D
:102D70009F878E871D861C86ACC06D3009F4A9C064
:102D80008E898823C1F03C898C859D8546E0349FDF
:102D9000800D911D112448855985841795075CF095
:102DA0001D861C868E859F85E8E03E9F800D911DC7
:102DB00011249F878E87EA88FB88088919894E85A8
:102DC0005F856C857D85CC88CE010E94F8142C89A6
:102DD0008C859D85F6E02F9F800D911D112441C0AB
:102DE0006A3079F41D861C862C89FC013696E491A4
:102DF0008E859F852E9F800D911D11249F878E8724
:102E000068C06D3009F465C0AC014C5F5F4FFA01DA
:102E10003491631708F45DC03196E491E61708F425
:102E200058C0FA014491362F341BFC013296A5900C
:102E3000B490F7E03F9FA00CB11C1124F50132962D
:102E400034913196E491332311F0E1110DC0F50175
:102E50003496E4912C898C859D85E29F800D911D8F
:102E600011249D878C8735C0F501359644915E8984
:102E7000552311F16C89E32FF0E0E40FF11D47FDBC
:102E8000FA956E9FD0016F9FB00D11244C855D8522
:102E90004A0F5B1FE885F9854E175F076CF01D86AA
:102EA0001C86FC013696E4918E859F856E9F800D71
:102EB000911D11249F878E87EA88FB8808891989CC
:102EC0004E855F856C857D85CC88CE010E94F81487
:102ED000BECF81E090E0DF91CF911F910F91FF90E5
:102EE000EF90CF90BF90AF900895EF92FF920F9325
:102EF0001F93DC01ED91FC9111971A960D911C9195
:102F00001B9718962D913C9119970684F785E02D13
:102F10007B0140E050E060E070E009951F910F9167
:102F2000FF90EF9008956F927F928F929F92AF9251
:102F3000BF92CF92DF92EF92FF920F931F93CF93A6
:102F4000DF936C015A014801EB013B01620E731ED5
:102F5000C615D70574F4D601ED91FC910084F18576
:102F6000E02D87019401A501BE01C60109952196B6
:102F7000EFCFDF91CF911F910F91FF90EF90DF90F6
:102F8000CF90BF90AF909F908F907F906F9008955B
:102F9000EF92FF920F931F93DC01ED91FC91260FAE
:102FA000371F215031090680F781E02D78018A0111
:102FB00009951F910F91FF90EF900895EF92FF9266
:102FC0000F931F937801DC01ED91FC91240F351FC5
:102FD0008901015011090680F781E02D9B010995B7
:102FE0001F910F91FF90EF9008956F927F928F92B3
:102FF0009F92AF92BF92CF92DF92EF92FF920F9388
:103000001F93CF93DF93EC014B015A016901380103
:10301000E881F9810284F385E02D87010995E88133
:10302000F981A501460D571D415051090284F385D0
:10303000E02D9601B401CE010995E881F981008463
:10304000F185E02D9301A501B401CE010995E88138
:10305000F981C80CD91CB601615071090084F18551
:10306000E02D9301A501CE010995DF91CF911F912C
:103070000F91FF90EF90DF90CF90BF90AF909F9017
:103080008F907F906F9008952F923F924F925F9212
:103090006F927F928F929F92AF92BF92CF92DF9268
:1030A000EF92FF920F931F93CF93DF9300D01F9265
:1030B000CDB7DEB74C017B836A836A0159011701E2
:1030C0009801241B350B37FF03C031952195310939
:1030D000C5014A815B81841B950B97FF03C09195C5
:1030E0008195910951E059838217930714F0198251
:1030F0000BC09A2D8B2D5801092F182F9A818B8187
:10310000DB82CA82C92ED82E8A819B81A816B90675
:103110005CF49C2D8D2D6801092F182F9A818B81CD
:10312000BB82AA82A92EB82E2501AA81BB814A1A88
:103130005B0A38016C187D0877FE03C071946194B6
:103140007108720157FE03C0BFEFEB1AFB0AF5943A
:10315000E794C016D1061CF00FEF1FEF1FC001E06F
:1031600010E01CC0D401ED91FC91B9810480F5817F
:10317000E02D9101BB23C1F04A815B81B601C401FE
:103180000995E618F708F7FE04C0C00ED11EE40C3E
:10319000F51CEA81FB813196FB83EA834A815B81DE
:1031A000A416B506FCF604C0A6016A817B81E7CFB0
:1031B0000F900F900F90DF91CF911F910F91FF9083
:1031C000EF90DF90CF90BF90AF909F908F907F90C7
:1031D0006F905F904F903F902F9008950F931F93A3
:1031E000CF93DF93DC0155968C915597823071F027
:1031F000833009F1813009F08CC01496ED91FC9177
:103200001597E41BF50BE21BF30B20C01496ED9110
:10321000FC911597CF01861B970BBC01615071097A
:103220001696ED91FC911797CF01841B950BAC017D
:10323000421B530B6EC01696ED91FC911797CF0170
:10324000861B970BBC0161507109FA0177FD1BC108
:1032500016968D919C911797681779070CF013C1FA
:10326000F7FF04C02E0F3F1FE0E0F0E014968D91B1
:103270009C911597AF01420F531F841795071CF4BB
:103280009C012E1B3F0B121613060CF0FCC0CB0149
:1032900077FD079643E0959587954A95E1F79695D2
:1032A000982F882797958795E80FF91FE050FF4FD3
:1032B0006770772781E090E001C0880F6A95EAF790
:1032C000482F0130110541F088F00230110509F056
:1032D000DAC02E0F3F1F15C02E0F3F1FE217F30756
:1032E00009F4D1C08081842B8193F8CF80952E0F73
:1032F0003F1FE217F30709F4C6C09081982391930A
:10330000F8CFE217F30709F4BEC0808184278193C8
:10331000F8CF77FDB8C014968D919C9115976817DA
:1033200079070CF0B0C057FF04C0240F351F40E0F0
:1033300050E016968D919C911797FA01E20FF31FBA
:103340008E179F071CF49C01241B350B12161306C5
:103350000CF099C0A22F842F86958695869590E8CB
:10336000899F600D711D1124FB01E050FF4F4770D4
:10337000A9F198E0941B492F50E0EA01C459DA4FB3
:103380008881291790F4421B51092FEF30E002C0C9
:10339000359527954A95E2F782230130110541F0D2
:1033A00068F00230110589F06EC00130110519F482
:1033B0002081822B0CC00130110520F480952081E2
:1033C000822305C00230110531F4208182278083D9
:1033D000A91708F458C0A91BE058FF4FA83048F1BE
:1033E0000230110559F4EF018A2F98819095988346
:1033F000C058DF4F88508830C0F730C081E00130BE
:10340000110509F080E08195EF019A2F8883C0585B
:10341000DF4F98509830D0F788EF8A0F86958695C1
:10342000869590E8899FE00DF11D1124E058FF4F2B
:10343000A770AA2341F1B0E0AC59BA4F8C9101308A
:10344000110529F038F002301105D1F01CC090812F
:10345000892B18C080959081892314C088EF8A0F2A
:1034600086958695869590E8899FE00DF11D11243B
:10347000E058FF4FA77039F0B0E0AC59BA4F8C91CB
:10348000908189278083DF91CF911F910F910895BB
:103490008E3008F08E508770806480937C0080911D
:1034A0007A00806480937A0080917A0086FDFCCF58
:1034B000809178002091790090E0922B08958F926E
:1034C0009F92AF92BF92CF92DF92EF92FF926B01E9
:1034D0007C010E941B144B015C01C114D104E10466
:1034E000F104F1F00E941B14DC01CB018819990949
:1034F000AA09BB09883E9340A105B10570F321E0FC
:10350000C21AD108E108F10888EE880E83E0981EFF
:10351000A11CB11CC114D104E104F10419F7DDCFE1
:10352000FF90EF90DF90CF90BF90AF909F908F90E3
:1035300008952FB7F89460914C0670914D068091D4
:103540004E0690914F062FBF08951F920F920FB60F
:103550000F9211242F933F938F939F93AF93BF9319
:1035600080914C0690914D06A0914E06B0914F0669
:1035700030914B0623E0230F2D3720F40196A11D37
:10358000B11D05C026E8230F0296A11DB11D209391
:103590004B0680934C0690934D06A0934E06B09335
:1035A0004F068091500690915106A0915206B0911D
:1035B00053060196A11DB11D8093500690935106AC
:1035C000A0935206B0935306BF91AF919F918F91F4
:1035D0003F912F910F900FBE0F901F9018951F9243
:1035E0000F920FB60F9211242F933F934F935F9337
:1035F0006F937F938F939F93AF93BF93EF93FF93BB
:103600008091B900887F803609F49CC068F58832C3
:1036100009F45BC090F4803109F454C038F4882375
:1036200009F4F6C0883009F44DC0F6C0883109F4B9
:103630004CC0803209F45DC0EFC0803409F468C02A
:1036400048F4803309F455C0883309F0E5C080930D
:10365000D106D8C0803509F44FC0883509F45DC063
:10366000883409F0D9C0D6C0883909F4C7C0A8F495
:10367000883709F467C038F4883609F463C08037A6
:1036800009F460C0C9C0883809F4B8C0803909F4A9
:103690005FC0803809F0C0C05BC0803B09F486C0C1
:1036A00038F4803A09F466C0883A09F47FC0B4C09F
:1036B000803C09F4A7C0883C09F4A4C0883B09F405
:1036C0008AC0AAC08091AE0610C09091D0068091A9
:1036D000CF06981770F5E091D00681E08E0F8093A9
:1036E000D006F0E0E155F94F80818093BB0085EC76
:1036F00086C08093D1068EC0E091D00681E08E0F07
:103700008093D0068091BB00F0E0E155F94F8083B3
:103710009091D0068091CF066EC0E091D00681E0F6
:103720008E0F8093D0068091BB00F0E0E155F94FF9
:1037300080838091D20681116DC081E08093AD06B7
:1037400084EA61C083E08093D30610924A06CFCF0B
:1037500080914A06803208F051C0E0914A0681E02B
:103760008E0F80934A068091BB00F0E0E65DF94F32
:103770008083BDCF85EC8093BC001092D3068091EE
:103780004A06803230F4E0914A06F0E0E65DF94FF7
:10379000108260914A0670E0E0912806F0912906B7
:1037A0008AE296E0099510924A0636C084E080933A
:1037B000D3061092270610922606E0912406F09177
:1037C0002506099580912606811105C081E0809328
:1037D000260610920406E091270681E08E0F809362
:1037E0002706F0E0EC5FF94F80818093BB00909159
:1037F000270680912606981708F479CF85E88093EC
:10380000BC000AC085EC8093BC001092D30604C0B3
:103810001092D1060E944014FF91EF91BF91AF9199
:103820009F918F917F916F915F914F913F912F91D8
:103830000F900FBE0F901F901895CF92DF92EF92CE
:10384000FF920F931F93CF93DF936C017A018B014B
:10385000C0E0D0E0CE15DF0589F0D8016D918D0173
:10386000D601ED91FC910190F081E02DC601099502
:10387000892B11F47E0102C02196ECCFC701DF91A4
:10388000CF911F910F91FF90EF90DF90CF9008950F
:103890000E946D270C9414208F929F92AF92BF923A
:1038A000CF92DF92EF92FF920F931F93CF93DF930C
:1038B0007C016B01C0E0D0E002E010E0842F847056
:1038C000A82E842F8270982E842F8870882E4170A5
:1038D000B42E2196AA2021F1E0911507F091160748
:1038E0000480F581E02D21E030E0A601400F511F5A
:1038F000B7016C0F7D1F85E197E00995E0911507F1
:10390000F09116070480F581E02D21E030E0A6015A
:103910004C0F5D1FB701600F711F85E197E009959E
:10392000992021F1E0911507F09116070480F581A7
:10393000E02D21E030E0A601401B510BB7016C0FD8
:103940007D1F85E197E00995E0911507F091160735
:103950000480F581E02D21E030E0A6014C1B5D0BD9
:10396000B701600F711F85E197E00995882021F16B
:10397000E0911507F09116070480F581E02D21E014
:1039800030E0A6014C0F5D1FB701601B710B85E194
:1039900097E00995E0911507F09116070480F581ED
:1039A000E02D21E030E0A601400F511FB7016C1B54
:1039B0007D0B85E197E00995BB2021F1E09115078A
:1039C000F09116070480F581E02D21E030E0A6019A
:1039D0004C1B5D0BB701601B710B85E197E00995EE
:1039E000E0911507F09116070480F581E02D21E0A4
:1039F00030E0A601401B510BB7016C1B7D0B85E12C
:103A000097E00995C017D1072CF401E010E0C1E060
:103A1000D0E05FCFDF91CF911F910F91FF90EF909A
:103A2000DF90CF90BF90AF909F908F90089583309C
:103A300081F028F4813099F08230A1F00895873028
:103A4000A9F08830B9F08430D1F4809180008F7D66
:103A500003C0809180008F7780938000089584B5A3
:103A60008F7702C084B58F7D84BD08958091B000AA
:103A70008F7703C08091B0008F7D8093B000089550
:103A80001F93CF93DF93282F30E0F901E652F24FD6
:103A90008491F901E75FF14FD491F901E95DF14FAC
:103AA000C491CC23C9F0162F81110E94171DEC2F51
:103AB000F0E0EE0FFF1FE35EF14FA591B4918FB7D9
:103AC000F894111105C09C91ED2FE095E92302C0F7
:103AD000EC91ED2BEC938FBFDF91CF911F91089567
:103AE000CF93DF9390E0FC01E75FF14F2491FC015D
:103AF000E95DF14F8491882361F190E0880F991F6F
:103B0000FC01E150F24FC591D491FC01E35EF14F0D
:103B1000A591B491611109C09FB7F894888120954F
:103B200082238883EC912E230BC0623061F49FB70F
:103B3000F8943881822F809583238883EC912E2BF3
:103B40002C939FBF06C08FB7F894E8812E2B288353
:103B50008FBFDF91CF910895EF92FF920F931F9344
:103B6000CF93DF931F92CDB7DEB708EF16E0E12CBD
:103B7000F12CF80161918F01C70169830E947B27B5
:103B80006981681719F0C7010E948327FFEFEF1AB8
:103B9000FF0A81E1E816F10461F788EF96E00F90E3
:103BA000DF91CF911F910F91FF90EF900895209199
:103BB000F7069091F606213208F04AC08091D306AC
:103BC0008111FCCF32E03093D30631E03093D2063E
:103BD0003FEF3093D1061092D0062093CF06A6ED8A
:103BE000B6E04FEA56E0FA013E2F341B321718F4C4
:103BF0003D913193F9CF1092AE062091AE06990F08
:103C0000922B9093AE069091AD06913061F4109294
:103C1000AD069091AE069093BB009091BC0093FDD1
:103C2000F8CF95EC01C095EE9093BC009091D3062F
:103C30009230E1F39091D1069F3F79F08091D106C7
:103C4000803241F08091D106803331F084E005C0AC
:103C500081E003C082E001C083E01092D50610929B
:103C6000F7061092D406089590913607992339F0FB
:103C70008EBD00000DB407FEFDCF8EB5089528E07F
:103C800030E040E8E0913907F0913A075081909197
:103C90004007909595239083E0913707F09138077E
:103CA00090913F07542F582319F05081952B03C052
:103CB0005081909595239083E0913907F0913A07D0
:103CC000508190914007952B908346952150310962
:103CD000C9F60895CF93C82F809131078F3F59F1CE
:103CE000E0913B07F0913C07808190914107982B30
:103CF0009083E0913D07F0913E072081909142072B
:103D0000909592239083E0913B07F0913C072081AE
:103D1000909141079095922390838C2F0E94341E9E
:103D2000E0913B07F0913C07908180914107892BFE
:103D30008083CF91089580912F0791E09093D406CE
:103D40008093F6061092D5061092F70660E089E09F
:103D500097E00E94C8146C2F89E097E00E94C81475
:103D6000CF910C94D71DCF9382E0809330078CE3E2
:103D700080932F07809131078F3F09F4BDC061E028
:103D8000809133070E94701D61E0809135070E9489
:103D9000701D80913507082E000C990BFC01E95D20
:103DA000F14FE491F0E0EE0FFF1FE35EF14F25913C
:103DB000349130933C0720933B07FC01E75FF14FC0
:103DC000E491E093410780913307082E000C990B92
:103DD000FC01E95DF14FE491F0E0EE0FFF1FE35EBF
:103DE000F14F2591349130933E0720933D07FC011C
:103DF000E75FF14FE491E09342078091360781112C
:103E00003EC061E0809131070E94701D61E08091A9
:103E100032070E94701D80913207082E000C990B0A
:103E2000FC01E95DF14FE491F0E0EE0FFF1FE35E6E
:103E3000F14F2591349130933A0720933907FC01D3
:103E4000E75FF14FE491E093400780913107082E3E
:103E5000000C990BFC01E95DF14FE491F0E0EE0FED
:103E6000FF1FE35EF14F2591349130933807209383
:103E70003707FC01E75FF14FE491E0933F07809142
:103E80003607882309F45FC0CFB7F89480918B0779
:103E9000811127C0E1E3FEE08491E3E1FEE094912B
:103EA000E82FF0E0EE0FFF1FE150F24FA591B49123
:103EB000EC91E92321F461E08AE00E94401D61E079
:103EC0008AE00E94701D8CB580618CBD8CB58064C9
:103ED0008CBD61E08DE00E94701D61E08BE00E946E
:103EE000701D80918B078F5F80938B07CFBF80E51C
:103EF0008CBD81E08DBD27C01092AC061092AB0640
:103F00001092D5061092F7061092D30681E08093A6
:103F1000D2061092AD0661E082E10E94401D61E090
:103F200083E10E94401D8091B9008E7F8093B9008B
:103F30008091B9008D7F8093B90088E48093B800A8
:103F400085E48093BC008091340787FD1EC061E04A
:103F50000E94701D61E0809134070E94401D61E065
:103F600070E080E090E00E945F1A60E0809134078A
:103F70000E94401D6AE070E080E090E00E945F1ABD
:103F800061E0809134070E94401D8EEA0E946A1E03
:103F900085ED0E946A1E80E80E946A1E88EA0E94DF
:103FA0006A1E8FE30E946A1E83ED0E946A1E80E0F3
:103FB0000E946A1E80E40E946A1E8DE80E946A1EAA
:103FC00084E10E946A1E80E20E946A1E80E00E94D4
:103FD0006A1E81EA0E946A1E88EC0E946A1E8AEDAF
:103FE0000E946A1E82E10E946A1E81E80E946A1E87
:103FF0008FEC0E946A1E89ED0E946A1E81EF0E946A
:104000006A1E8BED0E946A1E80E40E946A1E84EA8A
:104010000E946A1E86EA0E946A1E8EE20E946A1E42
:104020008FEACF910C946A1E009769F0FC01019011
:104030000020E9F73197AF01481B590BBC0185E11E
:1040400097E00C941D1C80E090E00895CF92DF92E1
:10405000EF92FF920F931F93CF93DF93CDB7DEB70D
:10406000A1970FB6F894DEBF0FBECDBF9C0140E014
:1040700050E019A28E010F5D1F4F8AE0C82ED12C8F
:10408000E12CF12CCA01B901A70196010E94BB27BE
:10409000605DF80162938F012115310541055105DD
:1040A00089F7CF010E941420A1960FB6F894DEBFC5
:1040B0000FBECDBFDF91CF911F910F91FF90EF9079
:1040C000DF90CF9008952F923F924F925F926F9220
:1040D0007F928F929F92AF92BF92CF92DF92EF9298
:1040E000FF920F931F93CF93DF9300D01F92CDB712
:1040F000DEB74C01162F742E3E2C402E512CC22EB2
:10410000D12C2E2D30E02F5F3F4FA201415051099D
:10411000B601872D90E00E94A210E12EF12C5701EC
:1041200041E0A41AB108C201B5010E943F2769838A
:1041300081E090E08E199F09689F000D112410E026
:104140000F5F1F4F15950795502E372D212C44E6F4
:10415000642E712CC70102979B838A83E22DF0E0C5
:10416000EA15FB05F4F5D401AE0FBF1F8C9185361F
:1041700008F084E611964C91453608F044E6839D9C
:10418000C0011124B3010E943F27232D261B439D0C
:10419000C0011124B3010E943F27832D861B2220DA
:1041A00039F04A815B81E417F50711F0412C01C019
:1041B000452C5981450E430E8601080F111D842D93
:1041C00090E0A601420F511D632F70E0EE24E394AE
:1041D000F12C9C0185E197E00E9444182394342D32
:1041E000BDCF0F900F900F90DF91CF911F910F9146
:1041F000FF90EF90DF90CF90BF90AF909F908F9007
:104200007F906F905F904F903F902F9008952F92E6
:104210003F924F925F926F927F928F929F92AF9256
:10422000BF92CF92DF92EF92FF920F931F93CF93A3
:10423000DF93CDB7DEB7AA970FB6F894DEBF0FBEF7
:10424000CDBF6C017B011A01681779079CF48F2D93
:104250004C155D050CF0BDC17A011601C62ED82E95
:104260004DE7A42EB12C6BE770E02FE730E03AA7C2
:1042700029A711C0461757073CF59E2D8F2D7101B8
:10428000292E382E3BE7A32EB12C6DE770E04FE7C7
:1042900050E05AA749A7EC14FD043CF099A58AA563
:1042A000BAA6A9A6A92EB82E05C09C2D8D2D6701F2
:1042B000E92EF82EC214D30409F045C089A59AA5A9
:1042C000A816B906D4F00CC06FE770E08417950704
:1042D00099F5ABE7B0E0BAA7A9A72DE7A22EB12CBC
:1042E00099A58AA5E9A5FAA5EA15FB0514F49A2D66
:1042F0008B2DA9A4BAA499A78AA76A157B0544F0B7
:1043000029A53AA52617370714F47AA769A7B50196
:10431000E0911507F091160729A53AA5261B370B42
:104320002F5F3F4F0284F385E02D01E010E0A601EE
:1043300085E197E009955AC1EBE7F0E0FAA7E9A714
:104340009DE7A92EB12CC50149A55AA5841B950B43
:1043500097012C193D09DB01A41BB50BBC83AB8372
:10436000F101EC19FD09F887EF83AB014A195B09EC
:104370005C874B87B1016E197F097C8B6B8BE214D4
:10438000F30429F0D7011197B88FAF8B02C0F88ED4
:10439000EF8A4601412C512C32011F86188A198A56
:1043A0001A8AA901330F660B770B498F5A8F6B8FCF
:1043B0007C8F2F813885032E000C440B550B2D8FDD
:1043C0003E8F4F8F58A3AC01990F660B770B49A313
:1043D0005AA36BA37CA36B817C81072E000C880BF6
:1043E000990B6DA37EA38FA398A7AF89B88DA8154D
:1043F000B9050CF457C06F85788989899A89298D08
:104400003A8D4B8D5C8D0E94912789A59AA5820FCC
:10441000931F9A838983C301B2012D8D3E8D4F8DE9
:1044200058A10E949127A9A5BAA52A0F3B1F4F8525
:10443000588969897A8989A19AA1ABA1BCA1480F41
:10444000591F6A1F7B1F4F87588B698B7A8B4DA131
:104450005EA16FA178A5440E551E661E771E698168
:104460007A812617370734F499818A813A83298320
:10447000292F382FE0911507F091160789819A812D
:10448000281B390B2F5F3F4F0284F385E02D01E09D
:1044900010E0A401BC0185E197E009959FEF891A1E
:1044A000990AA3CFC4018E199F09EB85FC85E89F6B
:1044B0002001E99F500CF89F500C1124052C000C92
:1044C0006608770894012C193D094B815C81429F55
:1044D000C001439F900D529F900D11246C01990FC4
:1044E000EE08FF086B897C89072E000C880B990B5E
:1044F0006B8B7C8B8D8B9E8B8F819885092E000C0E
:10450000AA0BBB0B8F839887A987BA879F01032EBD
:10451000000C440B550B2B873C874D875E874B81E6
:104520005C81052E000C660B770B4B835C836D83DF
:104530007E83281439040CF459C0C301B2012B89BD
:104540003C894D895E890E949127B501620F731FD6
:104550007A836983C701B6012F81388549855A85D9
:104560000E94912789A59AA5280F391F4B855C8544
:104570006D857E85440E551E661E771E6B817C817F
:104580008D819E81C60ED71EE81EF91E89819A81F3
:104590002817390734F499818A813A832983292F8E
:1045A000382FE0911507F0911607A981BA812A1BCF
:1045B0003B0B2F5F3F4F0284F385E02D01E010E0BD
:1045C000A401BD0185E197E00995BFEF8B1A9B0A15
:1045D000B0CF7601C62ED82E8DE7A82EB12C6FE76E
:1045E00070E02BE730E03AA729A758CEAA960FB67D
:1045F000F894DEBF0FBECDBFDF91CF911F910F9119
:10460000FF90EF90DF90CF90BF90AF909F908F90F2
:104610007F906F905F904F903F902F9008952F92D2
:104620003F924F925F927F928F929F92AF92BF92F2
:10463000CF92DF92EF92FF920F931F93CF93DF936E
:10464000CDB7DEB728970FB6F894DEBF0FBECDBF4B
:104650001C012B014A0159011C830B83C9010796D8
:1046600097FD07969C0193E0359527959A95E1F77C
:104670003A832983C12CD12C00E010E08B819C81EE
:10468000081719070CF042C018861F82D801A40D24
:10469000B51DBE83AD83EF81F885EA15FB057CF57A
:1046A0008F81988587709927892B11F0770C0EC020
:1046B000EF81F885F7FD379683E0F595E7958A95C4
:1046C000E1F7EC0DFD1DE80DF91D749077FE11C0AA
:1046D000E0911507F09116070480F581E02D970110
:1046E0004D815E816F817885620D731D85E197E054
:1046F00009958F819885019698878F83CCCF0F5F1E
:104700001F4F29813A81C20ED31EB8CF28960FB60B
:10471000F894DEBF0FBECDBFDF91CF911F910F91F7
:10472000FF90EF90DF90CF90BF90AF909F908F90D1
:104730007F905F904F903F902F900895789484B52C
:10474000826084BD84B5816084BD85B5826085BD8D
:1047500085B5816085BD80916E00816080936E001B
:10476000109281008091810082608093810080910D
:1047700081008160809381008091800081608093BE
:1047800080008091B10084608093B1008091B0007E
:1047900081608093B00080917A00846080937A0079
:1047A00080917A00826080937A0080917A008160A3
:1047B00080937A0080917A00806880937A001092CA
:1047C000C10061E08DE00E94701D61E086E00E9402
:1047D000701D62E082E00E94701D62E083E00E9432
:1047E000701D62E084E00E94701D62E085E00E941E
:1047F000701D61E08EE00E94701D61E08FE00E94FC
:10480000701D62E084E10E94701D62E085E10E94FB
:10481000701D61E08BE00E94701D61E08AE00E94E3
:10482000701D61E08CE00E94701D61E08BE00E94D1
:10483000401D60E08CE00E94401D60E08AE00E9424
:10484000401D61E08DE00E94401D60E086E00E9416
:10485000401D08EF16E0C0E0D0E0CE010E947B27AB
:10486000D8018D938D012196C131D105B1F7809189
:10487000F8069091F906A091FA06B091FB06099707
:10488000A105B10551F041E150E06EEE7DE088EF09
:1048900096E00E9472270E94AC1D8091FC060E9447
:1048A000E80AC4E5D6E0FE0180E090E02191319174
:1048B000232B51F4880F991FFC01EC5AF94F88E41F
:1048C00098E09183808304C001968430910571F74C
:1048D0000E94B31E81E090E0909328078093270701
:1048E00090932607809325078093290710922B0722
:1048F00080E094E0E0E0F1E0DF019C011D922150B6
:104900003040E1F70E94B31E80E00E94C20A60E0DE
:104910008DE00E94401D61E086E00E94401D80E025
:1049200090E029913991232B51F4880F991FFC01B4
:10493000EC5AF94F86EB9AE09183808304C001968C
:104940008430910571F781E00E94FB0900E010E0DE
:10495000D1E03CE0D32E83E597E00E94F311882359
:1049600009F4D8C084E10E94481A84E10E94481AE0
:104970003C0190938F0680938E0685E10E94481A31
:1049800085E10E94481A7C0190938D0680938C06E5
:104990008090000790900107A12CB12CC301A0E0EA
:1049A000B0E09C01AD01281939094A095B09A4E668
:1049B000B0E00E94B027209102073091030729013F
:1049C000612C712CA3019201281939094A095B094C
:1049D0000E94912757FD07C0253631054105510535
:1049E00024F4C22F03C0C0E001C0C4E6C093910606
:1049F0008090050790900607A12CB12CC701A0E07C
:104A0000B0E09C01AD01281939094A095B09A4E607
:104A1000B0E00E94B02720910707309108072901D4
:104A2000612C712CA3019201281939094A095B09EB
:104A30000E94912757FD07C02536310541055105D4
:104A400024F4E22E04C0E12C02C024E6E22EE0921F
:104A500090068CE497E00E94F311882301F1A4E70B
:104A6000B6E06CE576E080E090E0AC014C58594F40
:104A7000FA0131813D930196AC01445A594FFA0134
:104A80003081FB013193BF018731910571F7C093EC
:104A90008B06E09273068CE497E00E94DE11F090A2
:104AA00062078091040781112AC0CE192C2F0C2E89
:104AB000000C330B37FF03C03195219531091C16CB
:104AC00024F0C11104C08F2D03C080E001C081E03B
:104AD000223031057CF090916107891309C08AE585
:104AE00097E00E94F311882391F0F09061070FC0C6
:104AF000809361078AE597E00E94DE1108C081304B
:104B000029F0823021F4FF24F39401C0F12C8F2D81
:104B10000E94C20A42E063E677E080E00E94AD0DA9
:104B200044E06DE677E081E00E94AD0D43E067E789
:104B300077E082E00E94AD0D45E061E877E083E038
:104B40000E94AD0D8091940690919506009709F40E
:104B500043C0DC01ED91FC910680F781E02D0995C1
:104B60008091A306811108C068E270E08CE996E0AC
:104B70000E948512D093A306E0909406F0909506CB
:104B8000E114F10449F180919306882329F18CE91D
:104B900096E00E94F3118823F9F080919206882311
:104BA00051F0D701ED91FC910190F081E02DC7010A
:104BB0000995109292068091940690919506DC01D9
:104BC000ED91FC910280F381E02D099510929306FE
:104BD0008CE996E00E94DE1180919606882309F404
:104BE00080C081E20E946A1E80E00E946A1E8FE7F8
:104BF0000E946A1E82E20E946A1E80E00E946A1E73
:104C000087E00E946A1E809131078F3FA1F1E091F9
:104C10003B07F0913C07908180914107892B80836D
:104C2000E0913D07F0913E07908180914207892BEA
:104C30008083E0913B07F0913C0790818091410790
:104C400080958923808390E0E92E91E0F92EF70189
:104C500081917F010E94341EF0E0EF16F5E0FF061F
:104C6000B1F7E0913B07F0913C07908180914107BB
:104C7000892B808334C0C091B800D092B80080E006
:104C8000E82E81E0F82E80912F07D093D4068093F0
:104C9000F6061092D5061092F70660E489E097E0D8
:104CA0000E94C814A12CB12CF701EA0DFB1D6081F4
:104CB00089E097E00E94C8142FEFA21AB20A30E1EF
:104CC000A316B10489F70E94D71D80E1E80EF11CFC
:104CD000A0E0EA16A5E0FA06B1F6C093B80010927B
:104CE000960680919706882371F085E497E00E94EC
:104CF000F311882341F01092970685E497E00E9413
:104D0000DE110E94AC1D809144078330A9F00E94FF
:104D1000991A8090980690909906A0909A06B09063
:104D20009B06DC01CB0188199909AA09BB098133CB
:104D30009547A105B10538F40115110509F40BCE0D
:104D40000E94000006CE83E00E94FB09F5CF10927E
:104D50000C0710920B0788EE93E0A0E0B0E0809380
:104D60000D0790930E07A0930F07B093100788E7E5
:104D700095E090930A078093090710921807109204
:104D8000170720E830E030931A072093190780E4D2
:104D900090E090931C0780931B0730931E0720938D
:104DA0001D079093200780931F0710922A071092E7
:104DB000220710922107109224071092230781E006
:104DC000809329072FEF3FEF309328072093270781
:104DD000309326072093250780932B0710922C07EA
:104DE00010922E0710922D0788E895E090931607F1
:104DF000809315078FEF8093310780933507809359
:104E0000330780933207809334078091440780935F
:104E1000430768E873E185E497E00E94851280917A
:104E200062078093610765E070E08AE597E00E9481
:104E3000851269E170E083E597E00E94851262E3E4
:104E400070E08CE497E00E948512E3E6F7E080E0F2
:104E500090E01082118212821382DC01AD59B84FAA
:104E600014961C92149715961C921682178210861F
:104E700011860A963A968832910559F7089597FB5C
:104E8000072E16F4009407D077FD09D00E9453270F
:104E900007FC05D03EF4909581959F4F089570953D
:104EA00061957F4F0895AA1BBB1B51E107C0AA1F44
:104EB000BB1FA617B70710F0A61BB70B881F991FBB
:104EC0005A95A9F780959095BC01CD010895EE0FF4
:104ED000FF1F0590F491E02D099481E090E0F89493
:104EE0000C94EC27FB01DC0102C005900D924150AF
:104EF0005040D8F70895F999FECF92BD81BDF89A38
:104F0000992780B50895262FF999FECF1FBA92BD33
:104F100081BD20BD0FB6F894FA9AF99A0FBE01969A
:104F20000895052E97FB1EF400940E94A82757FDB4
:104F300007D00E94BB2707FC03D04EF40C94A8278F
:104F400050954095309521953F4F4F4F5F4F0895B5
:104F500090958095709561957F4F8F4F9F4F0895E5
:104F60000E94DD27A59F900DB49F900DA49F800DFA
:104F7000911D11240895A1E21A2EAA1BBB1BFD014D
:104F80000DC0AA1FBB1FEE1FFF1FA217B307E40728
:104F9000F50720F0A21BB30BE40BF50B661F771F80
:104FA000881F991F1A9469F7609570958095909560
:104FB0009B01AC01BD01CF010895A29FB001B39F39
:104FC000C001A39F700D811D1124911DB29F700D12
:0C4FD000811D1124911D0895F894FFCF5D
:104FDC0000000000000000000000000000000000C5
:104FEC0000000000000000000000000000000000B5
:104FFC0000000000000000000000000000000000A5
:10500C000000000000000000000000000000008014
:10501C008080000000000000000000000000000084
:10502C00008080C0C00000000000000000000000F4
:10503C000000000000000000000000000000000064
:10504C000000000000000000000000000000000054
:10505C000000000000000000000000000000000044
:10506C000000000080C0E0F0F8FCF8E00000000058
:10507C0000000000000000000000000000808080A4
:10508C00808000808000000000808080808000FF95
:10509C00FFFF000000008080808000008080000006
:1050AC0080FFFF8080008080008080808000808076
:1050BC000000000000808000008C8E84000080F8CE
:1050CC00F8F8800000000000000000000000000064
:1050DC00F0F0F0F0F0F0F0F0F0F0F0F0E0E0C08084
:1050EC0000E0FCFEFFFFFF7FFFFFFFFFFF00000063
:1050FC000000000000000000000000FEFFC70101DE
:10510C00010183FFFF00007CFEC70101010183FF49
:10511C00FFFF0038FEC78301010183C7FFFF0000BA
:10512C0001FFFF010100FFFF0701010100007FFFEC
:10513C0080000000FFFF7F0000FFFFFF000001FF69
:10514C00FFFF010000000000000000000000000054
:10515C00030F3F7F7FFFFFFFFFFFFFFFE7C7C78FF7
:10516C008F9FBFFFFFC3C0F0FFFFFFFFFFFCFCFCE6
:10517C00FCFCFCFCFCF8F8F0F0E0C00001030303BD
:10518C0003030103030000000001030303030101F7
:10519C0003010000000103030303010103030000EA
:1051AC0000030300000003030000000000000001E6
:1051BC0003030303030100000001030100000003CB
:1051CC0003010000000000000000000000000000CF
:1051DC0000000080C0E0F0F9FFFFFFFFFF3F1F0F52
:1051EC0087C7F7FFFF1F1F3DFCF8F8F8F87C7DFF21
:1051FC00FFFFFFFFFFFFFF7F3F0F07003030000076
:10520C000000000000000000000000000000000092
:10521C0000000000FEFEFC0000000000000000008A
:10522C0000000000000000000000000000E0C000D2
:10523C000000000000000000000030300000000002
:10524C000000000000000000000000000000000052
:10525C0000C0FEFFFFFFFFFFFFFFFFFF7F7F3F1F31
:10526C000F071F7FFFFFF8F8FFFFFFFFFFFEF8E0BF
:10527C00000000010000000000000000FEFE000025
:10528C0000FCFEFC0C06060EFCF80000F0F81C0EF0
:10529C000606060CFFFFFF0000FEFE00000000FCEF
:1052AC00FEFC00183C7E66E6CE84000006FFFF067E
:1052BC0006FCFEFC0C0606060000FEFE0000C0F814
:1052CC00FC4E4646464E7C7840183C76E6CECC806A
:1052DC0000000000000000000000000000000000C2
:1052EC000000000001070F1F1F3F3F3F3F1F0F0330
:1052FC000000000000000000000000000F0F000084
:10530C00000F0F0F000000000F0F000003070E0C22
:10531C0018180C060F0F0F0000010F0E0C180C0FB5
:10532C00070100040E0C180C0F070000000F0F00F3
:10533C00000F0F0F0000000000000F0F000000070F
:10534C00070C0C181C0C060600040E0C180C0F078E
:10535C000000000000000000000000000000000041
:10536C000000000000000000000000000000000031
:10537C000000000000000000000000000000000021
:10538C000000000000000000000000000000000011
:10539C000000000000000000000000000000000001
:1053AC0000000000000000000000000000000000F1
:1053BC0000000000000000000000000000000000E1
:1053CC0000000000000000000000000000000000D1
:1053DC00010000000000000077084A136107DB0B96
:1053EC005A08300B000000004E0DD607DD0784096B
:1053FC005A08A90A0000000008099F094208510C2C
:10540C007C0C590800000000120DFC0C16085B08FF
:10541C005A08E107000000005C10C0106010161262
:10542C005A086D1000000000C9116310661064105A
:10543C0065106710000103070F1F3F7F0080C0E05D
:10544C00F0F8FCFE00000000C814981490148114AD
:10545C0073147214000000009E161D1CBE0F44181D
:0C546C00EE18620EF51793177517F71471
:107800000C94343C0C94513C0C94513C0C94513CE1
:107810000C94513C0C94513C0C94513C0C94513CB4
:107820000C94513C0C94513C0C94513C0C94513CA4
:107830000C94513C0C94513C0C94513C0C94513C94
:107840000C94513C0C94513C0C94513C0C94513C84
:107850000C94513C0C94513C0C94513C0C94513C74
:107860000C94513C0C94513C11241FBECFEFD8E036
:10787000DEBFCDBF11E0A0E0B1E0ECE9FFE702C060
:1078800005900D92A230B107D9F712E0A2E0B1E065
:1078900001C01D92AD30B107E1F70E942D3D0C945F
:1078A000CC3F0C94003C982F959595959595959582
:1078B000905D8F708A307CF0282F295A8091C0000B
:1078C00085FFFCCF9093C6008091C00085FFFCCF60
:1078D0002093C6000895282F205DF0CF982F809127
:1078E000C00085FFFCCF9093C6000895EF92FF92F1
:1078F0000F931F93EE24FF2487018091C00087FD22
:1079000017C00894E11CF11C011D111D81E4E8164B
:1079100082E4F8068FE0080780E0180770F3E09132
:107920000401F091050109958091C00087FFE9CF1E
:107930008091C6001F910F91FF90EF9008950E94D3
:10794000763C982F8091C00085FFFCCF9093C600B5
:1079500091362CF490330CF09053892F089597555D
:10796000892F08951F930E949F3C182F0E949F3CCF
:107970001295107F810F1F9108951F93182F882350
:1079800021F00E94763C1150E1F71F9108951F935A
:10799000182F0E94763C803249F0809103018F5F5E
:1079A000809303018530C1F01F9108958091C0003C
:1079B00085FFFCCF84E18093C6008091C00085FFE5
:1079C000FCCF1093C6008091C00085FFFCCF80E102
:1079D0008093C6001F910895E0910401F091050184
:1079E00009951F9108950E94763C803241F0809164
:1079F00003018F5F80930301853081F008958091AA
:107A0000C00085FFFCCF84E18093C6008091C00058
:107A100085FFFCCF80E18093C6000895E0910401CA
:107A2000F09105010995089540E951E08823A1F0FE
:107A30002D9A28EE33E0FA013197F1F721503040CA
:107A4000D1F72D9828EE33E0FA013197F1F7215064
:107A50003040D1F7815061F708953F924F925F9285
:107A60006F927F928F929F92AF92BF92CF92DF924E
:107A7000EF92FF920F931F93CF93DF93000080E16B
:107A80008093C4001092C50088E18093C10086E015
:107A90008093C2005098589A259A81E00E94143D24
:107AA00024E1F22E9EE1E92E85E9D82E0FE0C02ECA
:107AB00010E1B12EAA24A394B1E49B2EA6E58A2E50
:107AC000F2E57F2EE0E26E2E79E4572E63E5462E36
:107AD00050E5352E0E94763C8033B1F18133B9F107
:107AE000803409F46FC0813409F476C0823409F41B
:107AF00085C0853409F488C0803531F1823521F1A3
:107B0000813511F1853509F485C0863509F48DC0BC
:107B1000843609F496C0843709F403C1853709F423
:107B200072C1863709F466C0809103018F5F80932C
:107B30000301853079F6E0910401F0910501099582
:107B40000E94763C803351F60E94F33CC3CF0E94E2
:107B5000763C803249F78091C00085FFFCCFF092DF
:107B6000C6008091C00085FFFCCF9092C600809136
:107B7000C00085FFFCCF8092C6008091C00085FFC9
:107B8000FCCF7092C6008091C00085FFFCCF609250
:107B9000C6008091C00085FFFCCF5092C600809146
:107BA000C00085FFFCCF4092C6008091C00085FFD9
:107BB000FCCF3092C6008091C00085FFFCCFB09210
:107BC000C60088CF0E94763C863808F4BDCF0E945C
:107BD000763C0E94F33C7ECF0E94763C803809F4CC
:107BE0009CC0813809F40BC1823809F43CC1883942
:107BF00009F48FC080E00E94C73C6CCF84E10E94F2
:107C0000BD3C0E94F33C66CF85E00E94BD3C0E94D3
:107C1000F33C60CF0E94763C809306010E94763C44
:107C2000809307010E94F33C55CF0E94763C80333D
:107C300009F41DC183E00E94BD3C80E00E94C73C66
:107C400049CF0E94763C809309020E94763C809343
:107C5000080280910C028E7F80930C020E94763C79
:107C6000853409F415C18091080290910902892B8D
:107C700089F000E010E00E94763CF801E85FFE4FDA
:107C800080830F5F1F4F80910802909109020817AF
:107C9000190788F30E94763C803209F045CF809125
:107CA0000C0280FF01C16091060170910701660F0F
:107CB000771F7093070160930601A0910802B091AD
:107CC00009021097C9F0E8E0F1E09B01AD014E0F09
:107CD0005F1FF999FECF32BD21BD819180BDFA9A17
:107CE000F99A2F5F3F4FE417F50799F76A0F7B1F4B
:107CF00070930701609306018091C00085FFFCCF5F
:107D0000F092C6008091C00085FFFCCFB092C60003
:107D1000E1CE83E00E94C73CDDCE82E00E94C73CFA
:107D2000D9CE0E94763C809309020E94763C8093D3
:107D300008028091060190910701880F991F909386
:107D40000701809306010E94763C853409F4A6C0A1
:107D500080910C028E7F80930C020E94763C8032D0
:107D600009F0B8CE8091C00085FFFCCFF092C6002C
:107D7000609108027091090261157105B9F140E046
:107D800050E080910C02A82FA170B82FB27011C0E2
:107D9000BB2309F45CC0E0910601F0910701319624
:107DA000F0930701E09306014F5F5F4F46175707B7
:107DB000E8F4AA2369F3F999FECF209106013091E6
:107DC000070132BD21BDF89A90B58091C00085FFB2
:107DD000FCCF9093C6002F5F3F4F30930701209355
:107DE00006014F5F5F4F4617570718F38091C00099
:107DF00085FDE5CE8091C00085FFF8CFE0CE81E023
:107E00000E94C73C67CE0E94763C803209F08CCE3F
:107E10008091C00085FFFCCFF092C6008091C00029
:107E200085FFFCCFE092C6008091C00085FFFCCFAB
:107E3000D092C6008091C00085FFFCCFC092C600E2
:107E40008091C00085FFFCCFB092C60043CEE09188
:107E50000601F091070194918091C00085FFFCCF4D
